{
  "_format": "hh-sol-artifact-1",
  "contractName": "LendingPoolAddressesProvider",
  "sourceName": "contracts/protocol/configuration/LendingPoolAddressesProvider.sol",
  "abi": [
    {
      "inputs": [
        {
          "internalType": "string",
          "name": "marketId",
          "type": "string"
        }
      ],
      "stateMutability": "nonpayable",
      "type": "constructor"
    },
    {
      "anonymous": false,
      "inputs": [
        {
          "indexed": false,
          "internalType": "bytes32",
          "name": "id",
          "type": "bytes32"
        },
        {
          "indexed": true,
          "internalType": "address",
          "name": "newAddress",
          "type": "address"
        },
        {
          "indexed": false,
          "internalType": "bool",
          "name": "hasProxy",
          "type": "bool"
        }
      ],
      "name": "AddressSet",
      "type": "event"
    },
    {
      "anonymous": false,
      "inputs": [
        {
          "indexed": true,
          "internalType": "address",
          "name": "newAddress",
          "type": "address"
        }
      ],
      "name": "ConfigurationAdminUpdated",
      "type": "event"
    },
    {
      "anonymous": false,
      "inputs": [
        {
          "indexed": true,
          "internalType": "address",
          "name": "newAddress",
          "type": "address"
        }
      ],
      "name": "EmergencyAdminUpdated",
      "type": "event"
    },
    {
      "anonymous": false,
      "inputs": [
        {
          "indexed": true,
          "internalType": "address",
          "name": "newAddress",
          "type": "address"
        }
      ],
      "name": "LendingPoolCollateralManagerUpdated",
      "type": "event"
    },
    {
      "anonymous": false,
      "inputs": [
        {
          "indexed": true,
          "internalType": "address",
          "name": "newAddress",
          "type": "address"
        }
      ],
      "name": "LendingPoolConfiguratorUpdated",
      "type": "event"
    },
    {
      "anonymous": false,
      "inputs": [
        {
          "indexed": true,
          "internalType": "address",
          "name": "newAddress",
          "type": "address"
        }
      ],
      "name": "LendingPoolUpdated",
      "type": "event"
    },
    {
      "anonymous": false,
      "inputs": [
        {
          "indexed": true,
          "internalType": "address",
          "name": "newAddress",
          "type": "address"
        }
      ],
      "name": "LendingRateOracleUpdated",
      "type": "event"
    },
    {
      "anonymous": false,
      "inputs": [
        {
          "indexed": false,
          "internalType": "string",
          "name": "newMarketId",
          "type": "string"
        }
      ],
      "name": "MarketIdSet",
      "type": "event"
    },
    {
      "anonymous": false,
      "inputs": [
        {
          "indexed": true,
          "internalType": "address",
          "name": "previousOwner",
          "type": "address"
        },
        {
          "indexed": true,
          "internalType": "address",
          "name": "newOwner",
          "type": "address"
        }
      ],
      "name": "OwnershipTransferred",
      "type": "event"
    },
    {
      "anonymous": false,
      "inputs": [
        {
          "indexed": true,
          "internalType": "address",
          "name": "newAddress",
          "type": "address"
        }
      ],
      "name": "PriceOracleUpdated",
      "type": "event"
    },
    {
      "anonymous": false,
      "inputs": [
        {
          "indexed": false,
          "internalType": "bytes32",
          "name": "id",
          "type": "bytes32"
        },
        {
          "indexed": true,
          "internalType": "address",
          "name": "newAddress",
          "type": "address"
        }
      ],
      "name": "ProxyCreated",
      "type": "event"
    },
    {
      "inputs": [
        {
          "internalType": "bytes32",
          "name": "id",
          "type": "bytes32"
        }
      ],
      "name": "getAddress",
      "outputs": [
        {
          "internalType": "address",
          "name": "",
          "type": "address"
        }
      ],
      "stateMutability": "view",
      "type": "function"
    },
    {
      "inputs": [],
      "name": "getEmergencyAdmin",
      "outputs": [
        {
          "internalType": "address",
          "name": "",
          "type": "address"
        }
      ],
      "stateMutability": "view",
      "type": "function"
    },
    {
      "inputs": [],
      "name": "getLendingPool",
      "outputs": [
        {
          "internalType": "address",
          "name": "",
          "type": "address"
        }
      ],
      "stateMutability": "view",
      "type": "function"
    },
    {
      "inputs": [],
      "name": "getLendingPoolCollateralManager",
      "outputs": [
        {
          "internalType": "address",
          "name": "",
          "type": "address"
        }
      ],
      "stateMutability": "view",
      "type": "function"
    },
    {
      "inputs": [],
      "name": "getLendingPoolConfigurator",
      "outputs": [
        {
          "internalType": "address",
          "name": "",
          "type": "address"
        }
      ],
      "stateMutability": "view",
      "type": "function"
    },
    {
      "inputs": [],
      "name": "getLendingRateOracle",
      "outputs": [
        {
          "internalType": "address",
          "name": "",
          "type": "address"
        }
      ],
      "stateMutability": "view",
      "type": "function"
    },
    {
      "inputs": [],
      "name": "getMarketId",
      "outputs": [
        {
          "internalType": "string",
          "name": "",
          "type": "string"
        }
      ],
      "stateMutability": "view",
      "type": "function"
    },
    {
      "inputs": [],
      "name": "getPoolAdmin",
      "outputs": [
        {
          "internalType": "address",
          "name": "",
          "type": "address"
        }
      ],
      "stateMutability": "view",
      "type": "function"
    },
    {
      "inputs": [],
      "name": "getPriceOracle",
      "outputs": [
        {
          "internalType": "address",
          "name": "",
          "type": "address"
        }
      ],
      "stateMutability": "view",
      "type": "function"
    },
    {
      "inputs": [],
      "name": "owner",
      "outputs": [
        {
          "internalType": "address",
          "name": "",
          "type": "address"
        }
      ],
      "stateMutability": "view",
      "type": "function"
    },
    {
      "inputs": [],
      "name": "renounceOwnership",
      "outputs": [],
      "stateMutability": "nonpayable",
      "type": "function"
    },
    {
      "inputs": [
        {
          "internalType": "bytes32",
          "name": "id",
          "type": "bytes32"
        },
        {
          "internalType": "address",
          "name": "newAddress",
          "type": "address"
        }
      ],
      "name": "setAddress",
      "outputs": [],
      "stateMutability": "nonpayable",
      "type": "function"
    },
    {
      "inputs": [
        {
          "internalType": "bytes32",
          "name": "id",
          "type": "bytes32"
        },
        {
          "internalType": "address",
          "name": "implementationAddress",
          "type": "address"
        }
      ],
      "name": "setAddressAsProxy",
      "outputs": [],
      "stateMutability": "nonpayable",
      "type": "function"
    },
    {
      "inputs": [
        {
          "internalType": "address",
          "name": "emergencyAdmin",
          "type": "address"
        }
      ],
      "name": "setEmergencyAdmin",
      "outputs": [],
      "stateMutability": "nonpayable",
      "type": "function"
    },
    {
      "inputs": [
        {
          "internalType": "address",
          "name": "manager",
          "type": "address"
        }
      ],
      "name": "setLendingPoolCollateralManager",
      "outputs": [],
      "stateMutability": "nonpayable",
      "type": "function"
    },
    {
      "inputs": [
        {
          "internalType": "address",
          "name": "configurator",
          "type": "address"
        }
      ],
      "name": "setLendingPoolConfiguratorImpl",
      "outputs": [],
      "stateMutability": "nonpayable",
      "type": "function"
    },
    {
      "inputs": [
        {
          "internalType": "address",
          "name": "pool",
          "type": "address"
        }
      ],
      "name": "setLendingPoolImpl",
      "outputs": [],
      "stateMutability": "nonpayable",
      "type": "function"
    },
    {
      "inputs": [
        {
          "internalType": "address",
          "name": "lendingRateOracle",
          "type": "address"
        }
      ],
      "name": "setLendingRateOracle",
      "outputs": [],
      "stateMutability": "nonpayable",
      "type": "function"
    },
    {
      "inputs": [
        {
          "internalType": "string",
          "name": "marketId",
          "type": "string"
        }
      ],
      "name": "setMarketId",
      "outputs": [],
      "stateMutability": "nonpayable",
      "type": "function"
    },
    {
      "inputs": [
        {
          "internalType": "address",
          "name": "admin",
          "type": "address"
        }
      ],
      "name": "setPoolAdmin",
      "outputs": [],
      "stateMutability": "nonpayable",
      "type": "function"
    },
    {
      "inputs": [
        {
          "internalType": "address",
          "name": "priceOracle",
          "type": "address"
        }
      ],
      "name": "setPriceOracle",
      "outputs": [],
      "stateMutability": "nonpayable",
      "type": "function"
    },
    {
      "inputs": [
        {
          "internalType": "address",
          "name": "newOwner",
          "type": "address"
        }
      ],
      "name": "transferOwnership",
      "outputs": [],
      "stateMutability": "nonpayable",
      "type": "function"
    }
  ],
  "bytecode": "0x60806040523480156200001157600080fd5b5060405162001e3b38038062001e3b833981810160405260208110156200003757600080fd5b81019080805160405193929190846401000000008211156200005857600080fd5b9083019060208201858111156200006e57600080fd5b82516401000000008111828201881017156200008957600080fd5b82525081516020918201929091019080838360005b83811015620000b85781810151838201526020016200009e565b50505050905090810190601f168015620000e65780820380516001836020036101000a031916815260200191505b506040525050506000620000ff6200015b60201b60201c565b600080546001600160a01b0319166001600160a01b0383169081178255604051929350917f8be0079c531659141344cd1fd0a4f28419497f9722a3daafe3b4186f6b6457e0908290a35062000154816200015f565b50620002c0565b3390565b80516200017490600190602084019062000214565b507f5e667c32fd847cf8bce48ab3400175cbf107bdc82b2dea62e3364909dfaee799816040518080602001828103825283818151815260200191508051906020019080838360005b83811015620001d6578181015183820152602001620001bc565b50505050905090810190601f168015620002045780820380516001836020036101000a031916815260200191505b509250505060405180910390a150565b828054600181600116156101000203166002900490600052602060002090601f0160209004810192826200024c576000855562000297565b82601f106200026757805160ff191683800117855562000297565b8280016001018555821562000297579182015b82811115620002975782518255916020019190600101906200027a565b50620002a5929150620002a9565b5090565b5b80821115620002a55760008155600101620002aa565b611b6b80620002d06000396000f3fe608060405234801561001057600080fd5b50600436106101425760003560e01c8063715018a6116100b8578063c12542df1161007c578063c12542df14610347578063ca446dd91461036d578063ddcaa9ea14610399578063f2fde38b146103a1578063f67b1847146103c7578063fca513a81461046d57610142565b8063715018a614610301578063820d12741461030957806385c858b11461032f5780638da5cb5b14610337578063aecda3781461033f57610142565b8063398e55531161010a578063398e5553146101de578063530e784f14610204578063568ef4701461022a5780635aef021f146102a75780635dcc528c146102cd578063712d9171146102f957610142565b80630261bf8b1461014757806321f8a7211461016b578063283d62ad1461018857806335da3394146101b05780633618abba146101d6575b600080fd5b61014f610475565b604080516001600160a01b039092168252519081900360200190f35b61014f6004803603602081101561018157600080fd5b5035610494565b6101ae6004803603602081101561019e57600080fd5b50356001600160a01b03166104af565b005b6101ae600480360360208110156101c657600080fd5b50356001600160a01b0316610591565b61014f610678565b6101ae600480360360208110156101f457600080fd5b50356001600160a01b0316610699565b6101ae6004803603602081101561021a57600080fd5b50356001600160a01b0316610783565b610232610867565b6040805160208082528351818301528351919283929083019185019080838360005b8381101561026c578181015183820152602001610254565b50505050905090810190601f1680156102995780820380516001836020036101000a031916815260200191505b509250505060405180910390f35b6101ae600480360360208110156102bd57600080fd5b50356001600160a01b03166108fc565b6101ae600480360360408110156102e357600080fd5b50803590602001356001600160a01b03166109ae565b61014f610a61565b6101ae610a81565b6101ae6004803603602081101561031f57600080fd5b50356001600160a01b0316610b2d565b61014f610c18565b61014f610c3f565b61014f610c4e565b6101ae6004803603602081101561035d57600080fd5b50356001600160a01b0316610c66565b6101ae6004803603604081101561038357600080fd5b50803590602001356001600160a01b0316610d25565b61014f610df0565b6101ae600480360360208110156103b757600080fd5b50356001600160a01b0316610e0d565b6101ae600480360360208110156103dd57600080fd5b8101906020810181356401000000008111156103f857600080fd5b82018360208201111561040a57600080fd5b8035906020019184600183028401116401000000008311171561042c57600080fd5b91908080601f016020809104026020016040519081016040528093929190818152602001838380828437600092019190915250929550610f0f945050505050565b61014f610f7d565b600061048f6b13115391125391d7d413d3d360a21b610494565b905090565b6000908152600260205260409020546001600160a01b031690565b6104b7610f97565b6001600160a01b03166104c8610c3f565b6001600160a01b031614610511576040805162461bcd60e51b81526020600482018190526024820152600080516020611b16833981519152604482015290519081900360640190fd5b692827a7a62fa0a226a4a760b11b600090815260026020527f8625fbc469bac10fd11de1d783dcd446542784dbcc535ef64a1da61860fda74c80546001600160a01b0319166001600160a01b03841690811790915560405190917fc20a317155a9e7d84e06b716b4b355d47742ab9f8c5d630e7f556553f582430d91a250565b610599610f97565b6001600160a01b03166105aa610c3f565b6001600160a01b0316146105f3576040805162461bcd60e51b81526020600482018190526024820152600080516020611b16833981519152604482015290519081900360640190fd5b6e22a6a2a923a2a721acafa0a226a4a760891b600090815260026020527f767aa9c986e1d88108b2558f00fbd21b689a0397581446e2e868cd70421026cc80546001600160a01b0319166001600160a01b03841690811790915560405190917fe19673fc861bfeb894cf2d6b7662505497ef31c0f489b742db24ee331082691691a250565b600061048f724c454e44494e475f524154455f4f5241434c4560681b610494565b6106a1610f97565b6001600160a01b03166106b2610c3f565b6001600160a01b0316146106fb576040805162461bcd60e51b81526020600482018190526024820152600080516020611b16833981519152604482015290519081900360640190fd5b7121a7a62620aa22a920a62fa6a0a720a3a2a960711b600090815260026020527f65e3f3080e9127c1765503a54b8dbb495249e66169f096dfc87ee63bed17e22c80546001600160a01b0319166001600160a01b03841690811790915560405190917f991888326f0eab3df6084aadb82bee6781b5c9aa75379e8bc50ae8693454163891a250565b61078b610f97565b6001600160a01b031661079c610c3f565b6001600160a01b0316146107e5576040805162461bcd60e51b81526020600482018190526024820152600080516020611b16833981519152604482015290519081900360640190fd5b6b50524943455f4f5241434c4560a01b600090815260026020527f740f710666bd7a12af42df98311e541e47f7fd33d382d11602457a6d540cbd6380546001600160a01b0319166001600160a01b03841690811790915560405190917fefe8ab924ca486283a79dc604baa67add51afb82af1db8ac386ebbba643cdffd91a250565b60018054604080516020601f600260001961010087891615020190951694909404938401819004810282018101909252828152606093909290918301828280156108f25780601f106108c7576101008083540402835291602001916108f2565b820191906000526020600020905b8154815290600101906020018083116108d557829003601f168201915b5050505050905090565b610904610f97565b6001600160a01b0316610915610c3f565b6001600160a01b03161461095e576040805162461bcd60e51b81526020600482018190526024820152600080516020611b16833981519152604482015290519081900360640190fd5b6109776b13115391125391d7d413d3d360a21b82610f9b565b6040516001600160a01b038216907fc4e6c6cdf28d0edbd8bcf071d724d33cc2e7a30be7d06443925656e9cb492aa490600090a250565b6109b6610f97565b6001600160a01b03166109c7610c3f565b6001600160a01b031614610a10576040805162461bcd60e51b81526020600482018190526024820152600080516020611b16833981519152604482015290519081900360640190fd5b610a1a8282610f9b565b604080518381526001602082015281516001600160a01b038416927ff2689d5d5cd0c639e137642cae5d40afced201a1a0327e7ac9358461dc9fff31928290030190a25050565b600061048f7121a7a62620aa22a920a62fa6a0a720a3a2a960711b610494565b610a89610f97565b6001600160a01b0316610a9a610c3f565b6001600160a01b031614610ae3576040805162461bcd60e51b81526020600482018190526024820152600080516020611b16833981519152604482015290519081900360640190fd5b600080546040516001600160a01b03909116907f8be0079c531659141344cd1fd0a4f28419497f9722a3daafe3b4186f6b6457e0908390a3600080546001600160a01b0319169055565b610b35610f97565b6001600160a01b0316610b46610c3f565b6001600160a01b031614610b8f576040805162461bcd60e51b81526020600482018190526024820152600080516020611b16833981519152604482015290519081900360640190fd5b724c454e44494e475f524154455f4f5241434c4560681b600090815260026020527f10f0e20294ece4bd93e7a467dbf22ab9ab1740ebd0a532cc53066601e880c0cf80546001600160a01b0319166001600160a01b03841690811790915560405190917f5c29179aba6942020a8a2d38f65de02fb6b7f784e7f049ed3a3cab97621859b591a250565b600061048f782622a72224a723afa827a7a62fa1a7a72324a3aaa920aa27a960391b610494565b6000546001600160a01b031690565b600061048f692827a7a62fa0a226a4a760b11b610494565b610c6e610f97565b6001600160a01b0316610c7f610c3f565b6001600160a01b031614610cc8576040805162461bcd60e51b81526020600482018190526024820152600080516020611b16833981519152604482015290519081900360640190fd5b610cee782622a72224a723afa827a7a62fa1a7a72324a3aaa920aa27a960391b82610f9b565b6040516001600160a01b038216907fdfabe479bad36782fb1e77fbfddd4e382671713527e4786cfc93a022ae76372990600090a250565b610d2d610f97565b6001600160a01b0316610d3e610c3f565b6001600160a01b031614610d87576040805162461bcd60e51b81526020600482018190526024820152600080516020611b16833981519152604482015290519081900360640190fd5b600082815260026020908152604080832080546001600160a01b0319166001600160a01b03861690811790915581518681529283019390935280517ff2689d5d5cd0c639e137642cae5d40afced201a1a0327e7ac9358461dc9fff319281900390910190a25050565b600061048f6e22a6a2a923a2a721acafa0a226a4a760891b610494565b610e15610f97565b6001600160a01b0316610e26610c3f565b6001600160a01b031614610e6f576040805162461bcd60e51b81526020600482018190526024820152600080516020611b16833981519152604482015290519081900360640190fd5b6001600160a01b038116610eb45760405162461bcd60e51b8152600401808060200182810382526026815260200180611af06026913960400191505060405180910390fd5b600080546040516001600160a01b03808516939216917f8be0079c531659141344cd1fd0a4f28419497f9722a3daafe3b4186f6b6457e091a3600080546001600160a01b0319166001600160a01b0392909216919091179055565b610f17610f97565b6001600160a01b0316610f28610c3f565b6001600160a01b031614610f71576040805162461bcd60e51b81526020600482018190526024820152600080516020611b16833981519152604482015290519081900360640190fd5b610f7a81611243565b50565b600061048f6b50524943455f4f5241434c4560a01b610494565b3390565b6000828152600260209081526040918290205482513060248083019190915284518083039091018152604490910190935290820180516001600160e01b031663189acdbd60e31b1790526001600160a01b03169081908161116a5730604051611003906112f3565b6001600160a01b03909116815260405190819003602001906000f080158015611030573d6000803e3d6000fd5b509150816001600160a01b031663d1f5789485836040518363ffffffff1660e01b815260040180836001600160a01b0316815260200180602001828103825283818151815260200191508051906020019080838360005b8381101561109f578181015183820152602001611087565b50505050905090810190601f1680156110cc5780820380516001836020036101000a031916815260200191505b509350505050600060405180830381600087803b1580156110ec57600080fd5b505af1158015611100573d6000803e3d6000fd5b50505060008681526002602090815260409182902080546001600160a01b0319166001600160a01b038716908117909155825189815292519093507f1eb35cb4b5bbb23d152f3b4016a5a46c37a07ae930ed0956aba951e2311424389281900390910190a261123c565b816001600160a01b0316634f1ef28685836040518363ffffffff1660e01b815260040180836001600160a01b0316815260200180602001828103825283818151815260200191508051906020019080838360005b838110156111d65781810151838201526020016111be565b50505050905090810190601f1680156112035780820380516001836020036101000a031916815260200191505b509350505050600060405180830381600087803b15801561122357600080fd5b505af1158015611237573d6000803e3d6000fd5b505050505b5050505050565b8051611256906001906020840190611300565b507f5e667c32fd847cf8bce48ab3400175cbf107bdc82b2dea62e3364909dfaee799816040518080602001828103825283818151815260200191508051906020019080838360005b838110156112b657818101518382015260200161129e565b50505050905090810190601f1680156112e35780820380516001836020036101000a031916815260200191505b509250505060405180910390a150565b61074e806113a283390190565b828054600181600116156101000203166002900490600052602060002090601f016020900481019282611336576000855561137c565b82601f1061134f57805160ff191683800117855561137c565b8280016001018555821561137c579182015b8281111561137c578251825591602001919060010190611361565b5061138892915061138c565b5090565b5b80821115611388576000815560010161138d56fe60a060405234801561001057600080fd5b5060405161074e38038061074e8339818101604052602081101561003357600080fd5b5051606081901b6001600160601b0319166080526001600160a01b03166106ce6100806000398061023952806102835280610342528061046f528061049852806105c052506106ce6000f3fe60806040526004361061004e5760003560e01c80633659cfe6146100655780634f1ef286146100985780635c60da1b14610118578063d1f5789414610149578063f851a440146101ff5761005d565b3661005d5761005b610214565b005b61005b610214565b34801561007157600080fd5b5061005b6004803603602081101561008857600080fd5b50356001600160a01b031661022e565b61005b600480360360408110156100ae57600080fd5b6001600160a01b0382351691908101906040810160208201356401000000008111156100d957600080fd5b8201836020820111156100eb57600080fd5b8035906020019184600183028401116401000000008311171561010d57600080fd5b509092509050610278565b34801561012457600080fd5b5061012d610335565b604080516001600160a01b039092168252519081900360200190f35b61005b6004803603604081101561015f57600080fd5b6001600160a01b03823516919081019060408101602082013564010000000081111561018a57600080fd5b82018360208201111561019c57600080fd5b803590602001918460018302840111640100000000831117156101be57600080fd5b91908080601f016020809104026020016040519081016040528093929190818152602001838380828437600092019190915250929550610382945050505050565b34801561020b57600080fd5b5061012d610462565b61021c6104bc565b61022c6102276104c4565b6104e9565b565b336001600160a01b037f000000000000000000000000000000000000000000000000000000000000000016141561026d576102688161050d565b610275565b610275610214565b50565b336001600160a01b037f0000000000000000000000000000000000000000000000000000000000000000161415610328576102b28361050d565b6000836001600160a01b031683836040518083838082843760405192019450600093509091505080830381855af49150503d806000811461030f576040519150601f19603f3d011682016040523d82523d6000602084013e610314565b606091505b505090508061032257600080fd5b50610330565b610330610214565b505050565b6000336001600160a01b037f0000000000000000000000000000000000000000000000000000000000000000161415610377576103706104c4565b905061037f565b61037f610214565b90565b600061038c6104c4565b6001600160a01b03161461039f57600080fd5b6103a88261054d565b80511561045e576000826001600160a01b0316826040518082805190602001908083835b602083106103eb5780518252601f1990920191602091820191016103cc565b6001836020036101000a038019825116818451168082178552505050505050905001915050600060405180830381855af49150503d806000811461044b576040519150601f19603f3d011682016040523d82523d6000602084013e610450565b606091505b505090508061033057600080fd5b5050565b6000336001600160a01b037f000000000000000000000000000000000000000000000000000000000000000016141561037757507f000000000000000000000000000000000000000000000000000000000000000061037f565b61022c6105b5565b7f360894a13ba1a3210667c828492db98dca3e2076cc3735a920a3ca505d382bbc5490565b3660008037600080366000845af43d6000803e808015610508573d6000f35b3d6000fd5b6105168161054d565b6040516001600160a01b038216907fbc7cd75a20ee27fd9adebab32041f755214dbc6bffa90cc0225b39da2e5c2d3b90600090a250565b61055681610625565b6105915760405162461bcd60e51b815260040180806020018281038252603b81526020018061065e603b913960400191505060405180910390fd5b7f360894a13ba1a3210667c828492db98dca3e2076cc3735a920a3ca505d382bbc55565b336001600160a01b037f000000000000000000000000000000000000000000000000000000000000000016141561061d5760405162461bcd60e51b815260040180806020018281038252603281526020018061062c6032913960400191505060405180910390fd5b61022c61022c565b3b15159056fe43616e6e6f742063616c6c2066616c6c6261636b2066756e6374696f6e2066726f6d207468652070726f78792061646d696e43616e6e6f742073657420612070726f787920696d706c656d656e746174696f6e20746f2061206e6f6e2d636f6e74726163742061646472657373a2646970667358221220551d75941b01a3321044b1c3b1a8eb04483aa8ee169f7a396ebdf5478cb34b4a64736f6c634300070600334f776e61626c653a206e6577206f776e657220697320746865207a65726f20616464726573734f776e61626c653a2063616c6c6572206973206e6f7420746865206f776e6572a26469706673582212200aba7d81f70a4ccc52f9ec5d0ed2973f9ad5001db64df4332a9a04d35fe8a8f364736f6c63430007060033",
  "linkReferences": {},
  "deployedLinkReferences": {}
}