{
  "_format": "hh-sol-artifact-1",
  "contractName": "MasterChef",
  "sourceName": "contracts/staking/MasterChef.sol",
  "abi": [
    {
      "inputs": [
        {
          "internalType": "uint128[]",
          "name": "_startTimeOffset",
          "type": "uint128[]"
        },
        {
          "internalType": "uint128[]",
          "name": "_rewardsPerSecond",
          "type": "uint128[]"
        },
        {
          "internalType": "address",
          "name": "_poolConfigurator",
          "type": "address"
        },
        {
          "internalType": "contract IMultiFeeDistribution",
          "name": "_rewardMinter",
          "type": "address"
        },
        {
          "internalType": "uint256",
          "name": "_maxMintable",
          "type": "uint256"
        }
      ],
      "stateMutability": "nonpayable",
      "type": "constructor"
    },
    {
      "anonymous": false,
      "inputs": [
        {
          "indexed": true,
          "internalType": "address",
          "name": "token",
          "type": "address"
        },
        {
          "indexed": true,
          "internalType": "address",
          "name": "user",
          "type": "address"
        },
        {
          "indexed": false,
          "internalType": "uint256",
          "name": "amount",
          "type": "uint256"
        }
      ],
      "name": "Deposit",
      "type": "event"
    },
    {
      "anonymous": false,
      "inputs": [
        {
          "indexed": true,
          "internalType": "address",
          "name": "token",
          "type": "address"
        },
        {
          "indexed": true,
          "internalType": "address",
          "name": "user",
          "type": "address"
        },
        {
          "indexed": false,
          "internalType": "uint256",
          "name": "amount",
          "type": "uint256"
        }
      ],
      "name": "EmergencyWithdraw",
      "type": "event"
    },
    {
      "anonymous": false,
      "inputs": [
        {
          "indexed": true,
          "internalType": "address",
          "name": "previousOwner",
          "type": "address"
        },
        {
          "indexed": true,
          "internalType": "address",
          "name": "newOwner",
          "type": "address"
        }
      ],
      "name": "OwnershipTransferred",
      "type": "event"
    },
    {
      "anonymous": false,
      "inputs": [
        {
          "indexed": true,
          "internalType": "address",
          "name": "token",
          "type": "address"
        },
        {
          "indexed": true,
          "internalType": "address",
          "name": "user",
          "type": "address"
        },
        {
          "indexed": false,
          "internalType": "uint256",
          "name": "amount",
          "type": "uint256"
        }
      ],
      "name": "Withdraw",
      "type": "event"
    },
    {
      "inputs": [
        {
          "internalType": "address",
          "name": "_token",
          "type": "address"
        },
        {
          "internalType": "uint256",
          "name": "_allocPoint",
          "type": "uint256"
        }
      ],
      "name": "addPool",
      "outputs": [],
      "stateMutability": "nonpayable",
      "type": "function"
    },
    {
      "inputs": [
        {
          "internalType": "address[]",
          "name": "_tokens",
          "type": "address[]"
        },
        {
          "internalType": "uint256[]",
          "name": "_allocPoints",
          "type": "uint256[]"
        }
      ],
      "name": "batchUpdateAllocPoint",
      "outputs": [],
      "stateMutability": "nonpayable",
      "type": "function"
    },
    {
      "inputs": [
        {
          "internalType": "address",
          "name": "_user",
          "type": "address"
        },
        {
          "internalType": "address[]",
          "name": "_tokens",
          "type": "address[]"
        }
      ],
      "name": "claim",
      "outputs": [],
      "stateMutability": "nonpayable",
      "type": "function"
    },
    {
      "inputs": [
        {
          "internalType": "address",
          "name": "",
          "type": "address"
        }
      ],
      "name": "claimReceiver",
      "outputs": [
        {
          "internalType": "address",
          "name": "",
          "type": "address"
        }
      ],
      "stateMutability": "view",
      "type": "function"
    },
    {
      "inputs": [
        {
          "internalType": "address",
          "name": "_user",
          "type": "address"
        },
        {
          "internalType": "address[]",
          "name": "_tokens",
          "type": "address[]"
        }
      ],
      "name": "claimableReward",
      "outputs": [
        {
          "internalType": "uint256[]",
          "name": "",
          "type": "uint256[]"
        }
      ],
      "stateMutability": "view",
      "type": "function"
    },
    {
      "inputs": [
        {
          "internalType": "address",
          "name": "_token",
          "type": "address"
        },
        {
          "internalType": "uint256",
          "name": "_amount",
          "type": "uint256"
        }
      ],
      "name": "deposit",
      "outputs": [],
      "stateMutability": "nonpayable",
      "type": "function"
    },
    {
      "inputs": [
        {
          "internalType": "address",
          "name": "_token",
          "type": "address"
        }
      ],
      "name": "emergencyWithdraw",
      "outputs": [],
      "stateMutability": "nonpayable",
      "type": "function"
    },
    {
      "inputs": [
        {
          "internalType": "uint256",
          "name": "",
          "type": "uint256"
        }
      ],
      "name": "emissionSchedule",
      "outputs": [
        {
          "internalType": "uint128",
          "name": "startTimeOffset",
          "type": "uint128"
        },
        {
          "internalType": "uint128",
          "name": "rewardsPerSecond",
          "type": "uint128"
        }
      ],
      "stateMutability": "view",
      "type": "function"
    },
    {
      "inputs": [],
      "name": "maxMintableTokens",
      "outputs": [
        {
          "internalType": "uint256",
          "name": "",
          "type": "uint256"
        }
      ],
      "stateMutability": "view",
      "type": "function"
    },
    {
      "inputs": [],
      "name": "mintedTokens",
      "outputs": [
        {
          "internalType": "uint256",
          "name": "",
          "type": "uint256"
        }
      ],
      "stateMutability": "view",
      "type": "function"
    },
    {
      "inputs": [],
      "name": "owner",
      "outputs": [
        {
          "internalType": "address",
          "name": "",
          "type": "address"
        }
      ],
      "stateMutability": "view",
      "type": "function"
    },
    {
      "inputs": [],
      "name": "poolConfigurator",
      "outputs": [
        {
          "internalType": "address",
          "name": "",
          "type": "address"
        }
      ],
      "stateMutability": "view",
      "type": "function"
    },
    {
      "inputs": [
        {
          "internalType": "address",
          "name": "",
          "type": "address"
        }
      ],
      "name": "poolInfo",
      "outputs": [
        {
          "internalType": "uint256",
          "name": "allocPoint",
          "type": "uint256"
        },
        {
          "internalType": "uint256",
          "name": "lastRewardTime",
          "type": "uint256"
        },
        {
          "internalType": "uint256",
          "name": "accRewardPerShare",
          "type": "uint256"
        },
        {
          "internalType": "contract IOnwardIncentivesController",
          "name": "onwardIncentives",
          "type": "address"
        }
      ],
      "stateMutability": "view",
      "type": "function"
    },
    {
      "inputs": [],
      "name": "poolLength",
      "outputs": [
        {
          "internalType": "uint256",
          "name": "",
          "type": "uint256"
        }
      ],
      "stateMutability": "view",
      "type": "function"
    },
    {
      "inputs": [
        {
          "internalType": "uint256",
          "name": "",
          "type": "uint256"
        }
      ],
      "name": "registeredTokens",
      "outputs": [
        {
          "internalType": "address",
          "name": "",
          "type": "address"
        }
      ],
      "stateMutability": "view",
      "type": "function"
    },
    {
      "inputs": [],
      "name": "renounceOwnership",
      "outputs": [],
      "stateMutability": "nonpayable",
      "type": "function"
    },
    {
      "inputs": [],
      "name": "rewardMinter",
      "outputs": [
        {
          "internalType": "contract IMultiFeeDistribution",
          "name": "",
          "type": "address"
        }
      ],
      "stateMutability": "view",
      "type": "function"
    },
    {
      "inputs": [],
      "name": "rewardsPerSecond",
      "outputs": [
        {
          "internalType": "uint256",
          "name": "",
          "type": "uint256"
        }
      ],
      "stateMutability": "view",
      "type": "function"
    },
    {
      "inputs": [
        {
          "internalType": "address",
          "name": "_user",
          "type": "address"
        },
        {
          "internalType": "address",
          "name": "_receiver",
          "type": "address"
        }
      ],
      "name": "setClaimReceiver",
      "outputs": [],
      "stateMutability": "nonpayable",
      "type": "function"
    },
    {
      "inputs": [
        {
          "internalType": "address",
          "name": "_token",
          "type": "address"
        },
        {
          "internalType": "contract IOnwardIncentivesController",
          "name": "_incentives",
          "type": "address"
        }
      ],
      "name": "setOnwardIncentives",
      "outputs": [],
      "stateMutability": "nonpayable",
      "type": "function"
    },
    {
      "inputs": [],
      "name": "start",
      "outputs": [],
      "stateMutability": "nonpayable",
      "type": "function"
    },
    {
      "inputs": [],
      "name": "startTime",
      "outputs": [
        {
          "internalType": "uint256",
          "name": "",
          "type": "uint256"
        }
      ],
      "stateMutability": "view",
      "type": "function"
    },
    {
      "inputs": [],
      "name": "totalAllocPoint",
      "outputs": [
        {
          "internalType": "uint256",
          "name": "",
          "type": "uint256"
        }
      ],
      "stateMutability": "view",
      "type": "function"
    },
    {
      "inputs": [
        {
          "internalType": "address",
          "name": "newOwner",
          "type": "address"
        }
      ],
      "name": "transferOwnership",
      "outputs": [],
      "stateMutability": "nonpayable",
      "type": "function"
    },
    {
      "inputs": [
        {
          "internalType": "address",
          "name": "",
          "type": "address"
        }
      ],
      "name": "userBaseClaimable",
      "outputs": [
        {
          "internalType": "uint256",
          "name": "",
          "type": "uint256"
        }
      ],
      "stateMutability": "view",
      "type": "function"
    },
    {
      "inputs": [
        {
          "internalType": "address",
          "name": "",
          "type": "address"
        },
        {
          "internalType": "address",
          "name": "",
          "type": "address"
        }
      ],
      "name": "userInfo",
      "outputs": [
        {
          "internalType": "uint256",
          "name": "amount",
          "type": "uint256"
        },
        {
          "internalType": "uint256",
          "name": "rewardDebt",
          "type": "uint256"
        }
      ],
      "stateMutability": "view",
      "type": "function"
    },
    {
      "inputs": [
        {
          "internalType": "address",
          "name": "_token",
          "type": "address"
        },
        {
          "internalType": "uint256",
          "name": "_amount",
          "type": "uint256"
        }
      ],
      "name": "withdraw",
      "outputs": [],
      "stateMutability": "nonpayable",
      "type": "function"
    }
  ],
  "bytecode": "0x60a06040526000600a553480156200001657600080fd5b506040516200239338038062002393833981810160405260a08110156200003c57600080fd5b81019080805160405193929190846401000000008211156200005d57600080fd5b9083019060208201858111156200007357600080fd5b82518660208202830111640100000000821117156200009157600080fd5b82525081516020918201928201910280838360005b83811015620000c0578181015183820152602001620000a6565b5050505090500160405260200180516040519392919084640100000000821115620000ea57600080fd5b9083019060208201858111156200010057600080fd5b82518660208202830111640100000000821117156200011e57600080fd5b82525081516020918201928201910280838360005b838110156200014d57818101518382015260200162000133565b50505050919091016040908152602083015190830151606090930151909450919250600090506200017d620002b8565b600080546001600160a01b0319166001600160a01b0383169081178255604051929350917f8be0079c531659141344cd1fd0a4f28419497f9722a3daafe3b4186f6b6457e0908290a350600180546001600160a01b038086166001600160a01b0319928316179092556002805492851692909116919091179055845160001981015b6001810115620002a857600760405180604001604052808984815181106200022357fe5b60200260200101516001600160801b031681526020018884815181106200024657fe5b6020908102919091018101516001600160801b03908116909252835460018101855560009485529381902083519401805493909101518216600160801b029382166001600160801b0319909316929092171691909117905560001901620001ff565b505060805250620002bc92505050565b3390565b6080516120b2620002e1600039806106ef5280611bec5280611c2052506120b26000f3fe608060405234801561001057600080fd5b50600436106101a95760003560e01c80638da5cb5b116100f9578063cd1a4d8611610097578063e5b5349811610071578063e5b5349814610595578063eacdaabc14610663578063f2fde38b1461066b578063f3fef3a314610691576101a9565b8063cd1a4d8614610539578063de7e410c14610567578063e20c5a8a1461056f576101a9565b80639a7b5f11116100d35780639a7b5f11146104ae5780639b8e556314610503578063be9a65551461050b578063bfccff4514610513576101a9565b80638da5cb5b146103ef5780638e2eba09146104135780639a0ba2ea14610491576101a9565b8063334d0bbd116101665780636ff1c9bc116101405780636ff1c9bc146103b1578063715018a6146103d757806378e97925146103df5780638d75fe05146103e7576101a9565b8063334d0bbd1461027b57806334c54230146102c757806347e7ef2414610385576101a9565b8063081e3eda146101ae5780630f208beb146101c857806317caf6f11461020f5780631a848e011461021757806332a9caba1461021f578063332875641461024d575b600080fd5b6101b66106bd565b60408051918252519081900360200190f35b6101f6600480360360408110156101de57600080fd5b506001600160a01b03813581169160200135166106c3565b6040805192835260208301919091528051918290030190f35b6101b66106e7565b6101b66106ed565b61024b6004803603604081101561023557600080fd5b506001600160a01b038135169060200135610711565b005b61024b6004803603604081101561026357600080fd5b506001600160a01b0381358116916020013516610854565b6102986004803603602081101561029157600080fd5b50356108ba565b60405180836001600160801b03168152602001826001600160801b031681526020019250505060405180910390f35b61024b600480360360408110156102dd57600080fd5b810190602081018135600160201b8111156102f757600080fd5b82018360208201111561030957600080fd5b803590602001918460208302840111600160201b8311171561032a57600080fd5b919390929091602081019035600160201b81111561034757600080fd5b82018360208201111561035957600080fd5b803590602001918460208302840111600160201b8311171561037a57600080fd5b5090925090506108ef565b61024b6004803603604081101561039b57600080fd5b506001600160a01b038135169060200135610a27565b61024b600480360360208110156103c757600080fd5b50356001600160a01b0316610c83565b61024b610e19565b6101b6610ec5565b6101b6610ecb565b6103f7610ed1565b604080516001600160a01b039092168252519081900360200190f35b61024b6004803603604081101561042957600080fd5b6001600160a01b038235169190810190604081016020820135600160201b81111561045357600080fd5b82018360208201111561046557600080fd5b803590602001918460208302840111600160201b8311171561048657600080fd5b509092509050610ee0565b6103f7600480360360208110156104a757600080fd5b5035611034565b6104d4600480360360208110156104c457600080fd5b50356001600160a01b031661105e565b604080519485526020850193909352838301919091526001600160a01b03166060830152519081900360800190f35b6103f761108e565b61024b61109d565b6101b66004803603602081101561052957600080fd5b50356001600160a01b0316611112565b61024b6004803603604081101561054f57600080fd5b506001600160a01b0381358116916020013516611124565b6103f76111dc565b6103f76004803603602081101561058557600080fd5b50356001600160a01b03166111eb565b610613600480360360408110156105ab57600080fd5b6001600160a01b038235169190810190604081016020820135600160201b8111156105d557600080fd5b8201836020820111156105e757600080fd5b803590602001918460208302840111600160201b8311171561060857600080fd5b509092509050611206565b60408051602080825283518183015283519192839290830191858101910280838360005b8381101561064f578181015183820152602001610637565b505050509050019250505060405180910390f35b6101b66113eb565b61024b6004803603602081101561068157600080fd5b50356001600160a01b03166113f1565b61024b600480360360408110156106a757600080fd5b506001600160a01b0381351690602001356114f3565b60055490565b60086020908152600092835260408084209091529082529020805460019091015482565b600a5481565b7f000000000000000000000000000000000000000000000000000000000000000081565b610719611785565b6001600160a01b031661072a610ed1565b6001600160a01b031614610773576040805162461bcd60e51b81526020600482018190526024820152600080516020612033833981519152604482015290519081900360640190fd5b6001600160a01b0382166000908152600660205260409020600101541561079957600080fd5b6107a1611789565b600a546107ae9082611843565b600a556005805460018181019092557f036b6384b5eca791c62761152d0c79bb0604c104a5fb6f4eb0703f3154bb3db00180546001600160a01b039485166001600160a01b0319918216811790925560408051608081018252948552426020868101918252600087840181815260608901828152968252600690925292909220955186555193850193909355915160028401555160039092018054929093169116179055565b336001600160a01b0383161480610883575061086e610ed1565b6001600160a01b0316336001600160a01b0316145b61088c57600080fd5b6001600160a01b039182166000908152600c6020526040902080546001600160a01b03191691909216179055565b600781815481106108ca57600080fd5b6000918252602090912001546001600160801b038082169250600160801b9091041682565b6108f7611785565b6001600160a01b0316610908610ed1565b6001600160a01b031614610951576040805162461bcd60e51b81526020600482018190526024820152600080516020612033833981519152604482015290519081900360640190fd5b82811461095d57600080fd5b6109656118a6565b600a5460005b84811015610a1d5760006006600088888581811061098557fe5b905060200201356001600160a01b03166001600160a01b03166001600160a01b03168152602001908152602001600020905060008160010154116109c857600080fd5b6109fb8585848181106109d757fe5b905060200201356109f58360000154866118ef90919063ffffffff16565b90611843565b9250848483818110610a0957fe5b60200291909101359091555060010161096b565b50600a5550505050565b6001600160a01b03821660009081526006602052604090206001810154610a4d57600080fd5b610a55611789565b610a6183600a5461194c565b6001600160a01b03831660009081526008602090815260408083203384529091529020805460028301548115610af1576001830154600090610abc90610ab664e8d4a51000610ab08787611a7b565b90611ad4565b906118ef565b90508015610aef5733600090815260096020526040902054610ade9082611843565b336000908152600960205260409020555b505b610b066001600160a01b038716333088611b3b565b610b108286611843565b8084559150610b2864e8d4a51000610ab08484611a7b565b600184015560038401546001600160a01b031615610c3b576000866001600160a01b03166370a08231306040518263ffffffff1660e01b815260040180826001600160a01b0316815260200191505060206040518083038186803b158015610b8f57600080fd5b505afa158015610ba3573d6000803e3d6000fd5b505050506040513d6020811015610bb957600080fd5b505160038601546040805163ae0b537160e01b81526001600160a01b038b811660048301523360248301526044820188905260648201859052915193945091169163ae0b53719160848082019260009290919082900301818387803b158015610c2157600080fd5b505af1158015610c35573d6000803e3d6000fd5b50505050505b60408051868152905133916001600160a01b038916917f5548c837ab068cf56a2c2479df0882a4922fd203edb7517321831d95078c5f629181900360200190a3505050505050565b6001600160a01b038116600081815260066020908152604080832060088352818420338086529352908320805484825560018201949094559093909291610ccb919083611b95565b60408051828152905133916001600160a01b038716917ff24ef89f38eadc1bde50701ad6e4d6d11a2dc24f7cf834a486991f38833285049181900360200190a360038301546001600160a01b031615610e13576000846001600160a01b03166370a08231306040518263ffffffff1660e01b815260040180826001600160a01b0316815260200191505060206040518083038186803b158015610d6d57600080fd5b505afa158015610d81573d6000803e3d6000fd5b505050506040513d6020811015610d9757600080fd5b505160038501546040805163ae0b537160e01b81526001600160a01b0389811660048301523360248301526000604483018190526064830186905292519495509092169263ae0b537192608480820193929182900301818387803b158015610dfe57600080fd5b505af1925050508015610e0f575060015b505b505b50505050565b610e21611785565b6001600160a01b0316610e32610ed1565b6001600160a01b031614610e7b576040805162461bcd60e51b81526020600482018190526024820152600080516020612033833981519152604482015290519081900360640190fd5b600080546040516001600160a01b03909116907f8be0079c531659141344cd1fd0a4f28419497f9722a3daafe3b4186f6b6457e0908390a3600080546001600160a01b0319169055565b600b5481565b60045481565b6000546001600160a01b031690565b610ee8611789565b6001600160a01b0383166000908152600960205260408120805490829055600a5490915b8381101561102957600060066000878785818110610f2657fe5b905060200201356001600160a01b03166001600160a01b03166001600160a01b0316815260200190815260200160002090506000816001015411610f6957600080fd5b610f8e868684818110610f7857fe5b905060200201356001600160a01b03168461194c565b600060086000888886818110610fa057fe5b6001600160a01b036020918202939093013583168452838101949094525060409182016000908120918c1681529252812060028401548154919350610ff09164e8d4a5100091610ab09190611a7b565b905061101361100c8360010154836118ef90919063ffffffff16565b8790611843565b6001928301919091559450919091019050610f0c565b50610e118583611be7565b6005818154811061104457600080fd5b6000918252602090912001546001600160a01b0316905081565b6006602052600090815260409020805460018201546002830154600390930154919290916001600160a01b031684565b6002546001600160a01b031681565b6110a5611785565b6001600160a01b03166110b6610ed1565b6001600160a01b0316146110ff576040805162461bcd60e51b81526020600482018190526024820152600080516020612033833981519152604482015290519081900360640190fd5b600b541561110c57600080fd5b42600b55565b60096020526000908152604090205481565b61112c611785565b6001600160a01b031661113d610ed1565b6001600160a01b031614611186576040805162461bcd60e51b81526020600482018190526024820152600080516020612033833981519152604482015290519081900360640190fd5b6001600160a01b0382166000908152600660205260409020600101546111ab57600080fd5b6001600160a01b03918216600090815260066020526040902060030180546001600160a01b03191691909216179055565b6001546001600160a01b031681565b600c602052600090815260409020546001600160a01b031681565b606060008267ffffffffffffffff8111801561122157600080fd5b5060405190808252806020026020018201604052801561124b578160200160208202803683370190505b50905060005b838110156113e057600085858381811061126757fe5b6001600160a01b03602091820293909301358316600081815260068352604080822060088552818320968e168352958452808220600287015482516370a0823160e01b8152306004820152925194985090955093919287926370a082319260248082019391829003018186803b1580156112e057600080fd5b505afa1580156112f4573d6000803e3d6000fd5b505050506040513d602081101561130a57600080fd5b505160018501549091504211801561132157508015155b1561139057600061133f8560010154426118ef90919063ffffffff16565b9050600061136c600a54610ab0886000015461136660035487611a7b90919063ffffffff16565b90611a7b565b905061138b61138484610ab08464e8d4a51000611a7b565b8590611843565b935050505b6113b88360010154610ab664e8d4a51000610ab0868860000154611a7b90919063ffffffff16565b8787815181106113c457fe5b6020908102919091010152505060019093019250611251915050565b5090505b9392505050565b60035481565b6113f9611785565b6001600160a01b031661140a610ed1565b6001600160a01b031614611453576040805162461bcd60e51b81526020600482018190526024820152600080516020612033833981519152604482015290519081900360640190fd5b6001600160a01b0381166114985760405162461bcd60e51b8152600401808060200182810382526026815260200180611fc66026913960400191505060405180910390fd5b600080546040516001600160a01b03808516939216917f8be0079c531659141344cd1fd0a4f28419497f9722a3daafe3b4186f6b6457e091a3600080546001600160a01b0319166001600160a01b0392909216919091179055565b6001600160a01b0382166000908152600660205260409020600181015461151957600080fd5b6001600160a01b03831660009081526008602090815260408083203384529091529020805483811015611588576040805162461bcd60e51b81526020600482015260126024820152711dda5d1a191c985dce881b9bdd0819dbdbd960721b604482015290519081900360640190fd5b611590611789565b61159c85600a5461194c565b600283015460018301546000906115c090610ab664e8d4a51000610ab08787611a7b565b905080156115f357336000908152600960205260409020546115e29082611843565b336000908152600960205260409020555b6115fd83876118ef565b808555925061161564e8d4a51000610ab08585611a7b565b600185015561162e6001600160a01b0388163388611b95565b60038501546001600160a01b03161561173c576000876001600160a01b03166370a08231306040518263ffffffff1660e01b815260040180826001600160a01b0316815260200191505060206040518083038186803b15801561169057600080fd5b505afa1580156116a4573d6000803e3d6000fd5b505050506040513d60208110156116ba57600080fd5b505160038701546040805163ae0b537160e01b81526001600160a01b038c811660048301523360248301526044820189905260648201859052915193945091169163ae0b53719160848082019260009290919082900301818387803b15801561172257600080fd5b505af1158015611736573d6000803e3d6000fd5b50505050505b60408051878152905133916001600160a01b038a16917f9b1bfa7fa9ee420a16e124f794c35ac9f90472acc99140eb2f6447c714cad8eb9181900360200190a350505050505050565b3390565b600754600b541580159061179d5750600081115b15611840576000600760018303815481106117b457fe5b6000918252602091829020604080518082019091529101546001600160801b03808216808452600160801b9092041692820192909252600b549092506117fb9042906118ef565b111561183e576118096118a6565b60208101516001600160801b0316600355600780548061182557fe5b6000828152602081208201600019908101919091550190555b505b50565b60008282018381101561189d576040805162461bcd60e51b815260206004820152601b60248201527f536166654d6174683a206164646974696f6e206f766572666c6f770000000000604482015290519081900360640190fd5b90505b92915050565b600a5460055460005b818110156118ea576118e2600582815481106118c757fe5b6000918252602090912001546001600160a01b03168461194c565b6001016118af565b505050565b600082821115611946576040805162461bcd60e51b815260206004820152601e60248201527f536166654d6174683a207375627472616374696f6e206f766572666c6f770000604482015290519081900360640190fd5b50900390565b6001600160a01b038216600090815260066020526040902060018101544211611975575061183e565b6000836001600160a01b03166370a08231306040518263ffffffff1660e01b815260040180826001600160a01b0316815260200191505060206040518083038186803b1580156119c457600080fd5b505afa1580156119d8573d6000803e3d6000fd5b505050506040513d60208110156119ee57600080fd5b5051905080611a0457504260019091015561183e565b6000611a1d8360010154426118ef90919063ffffffff16565b90506000611a4285610ab0866000015461136660035487611a7b90919063ffffffff16565b9050611a65611a5a84610ab08464e8d4a51000611a7b565b600286015490611843565b6002850155505042600190920191909155505050565b600082611a8a575060006118a0565b82820282848281611a9757fe5b041461189d5760405162461bcd60e51b81526004018080602001828103825260218152602001806120126021913960400191505060405180910390fd5b6000808211611b2a576040805162461bcd60e51b815260206004820152601a60248201527f536166654d6174683a206469766973696f6e206279207a65726f000000000000604482015290519081900360640190fd5b818381611b3357fe5b049392505050565b604080516001600160a01b0380861660248301528416604482015260648082018490528251808303909101815260849091019091526020810180516001600160e01b03166323b872dd60e01b179052610e13908590611cf8565b604080516001600160a01b038416602482015260448082018490528251808303909101815260649091019091526020810180516001600160e01b031663a9059cbb60e01b1790526118ea908490611cf8565b6004547f0000000000000000000000000000000000000000000000000000000000000000611c158284611843565b1115611c4857611c457f0000000000000000000000000000000000000000000000000000000000000000826118ef565b91505b81156118ea57611c588183611843565b6004556001600160a01b038084166000908152600c60205260409020541680611c7e5750825b600254604080516334686fad60e21b81526001600160a01b03848116600483015260248201879052600160448301529151919092169163d1a1beb491606480830192600092919082900301818387803b158015611cda57600080fd5b505af1158015611cee573d6000803e3d6000fd5b5050505050505050565b6000611d4d826040518060400160405280602081526020017f5361666545524332303a206c6f772d6c6576656c2063616c6c206661696c6564815250856001600160a01b0316611da99092919063ffffffff16565b8051909150156118ea57808060200190516020811015611d6c57600080fd5b50516118ea5760405162461bcd60e51b815260040180806020018281038252602a815260200180612053602a913960400191505060405180910390fd5b6060611db88484600085611dc0565b949350505050565b606082471015611e015760405162461bcd60e51b8152600401808060200182810382526026815260200180611fec6026913960400191505060405180910390fd5b611e0a85611f1b565b611e5b576040805162461bcd60e51b815260206004820152601d60248201527f416464726573733a2063616c6c20746f206e6f6e2d636f6e7472616374000000604482015290519081900360640190fd5b600080866001600160a01b031685876040518082805190602001908083835b60208310611e995780518252601f199092019160209182019101611e7a565b6001836020036101000a03801982511681845116808217855250505050505090500191505060006040518083038185875af1925050503d8060008114611efb576040519150601f19603f3d011682016040523d82523d6000602084013e611f00565b606091505b5091509150611f10828286611f21565b979650505050505050565b3b151590565b60608315611f305750816113e4565b825115611f405782518084602001fd5b8160405162461bcd60e51b81526004018080602001828103825283818151815260200191508051906020019080838360005b83811015611f8a578181015183820152602001611f72565b50505050905090810190601f168015611fb75780820380516001836020036101000a031916815260200191505b509250505060405180910390fdfe4f776e61626c653a206e6577206f776e657220697320746865207a65726f2061646472657373416464726573733a20696e73756666696369656e742062616c616e636520666f722063616c6c536166654d6174683a206d756c7469706c69636174696f6e206f766572666c6f774f776e61626c653a2063616c6c6572206973206e6f7420746865206f776e65725361666545524332303a204552433230206f7065726174696f6e20646964206e6f742073756363656564a26469706673582212208b5b81ca08113d63b75c08fa08c3fcf2699184b8cc8e448f6558618376ce8f8364736f6c63430007060033",
  "linkReferences": {},
  "deployedLinkReferences": {}
}