{
  "_format": "hh-sol-artifact-1",
  "contractName": "MultiFeeDistribution",
  "sourceName": "contracts/staking/MultiFeeDistribution.sol",
  "abi": [
    {
      "inputs": [
        {
          "internalType": "address",
          "name": "_stakingToken",
          "type": "address"
        }
      ],
      "stateMutability": "nonpayable",
      "type": "constructor"
    },
    {
      "anonymous": false,
      "inputs": [
        {
          "indexed": true,
          "internalType": "address",
          "name": "previousOwner",
          "type": "address"
        },
        {
          "indexed": true,
          "internalType": "address",
          "name": "newOwner",
          "type": "address"
        }
      ],
      "name": "OwnershipTransferred",
      "type": "event"
    },
    {
      "anonymous": false,
      "inputs": [
        {
          "indexed": false,
          "internalType": "address",
          "name": "token",
          "type": "address"
        },
        {
          "indexed": false,
          "internalType": "uint256",
          "name": "amount",
          "type": "uint256"
        }
      ],
      "name": "Recovered",
      "type": "event"
    },
    {
      "anonymous": false,
      "inputs": [
        {
          "indexed": false,
          "internalType": "uint256",
          "name": "reward",
          "type": "uint256"
        }
      ],
      "name": "RewardAdded",
      "type": "event"
    },
    {
      "anonymous": false,
      "inputs": [
        {
          "indexed": true,
          "internalType": "address",
          "name": "user",
          "type": "address"
        },
        {
          "indexed": true,
          "internalType": "address",
          "name": "rewardsToken",
          "type": "address"
        },
        {
          "indexed": false,
          "internalType": "uint256",
          "name": "reward",
          "type": "uint256"
        }
      ],
      "name": "RewardPaid",
      "type": "event"
    },
    {
      "anonymous": false,
      "inputs": [
        {
          "indexed": false,
          "internalType": "address",
          "name": "token",
          "type": "address"
        },
        {
          "indexed": false,
          "internalType": "uint256",
          "name": "newDuration",
          "type": "uint256"
        }
      ],
      "name": "RewardsDurationUpdated",
      "type": "event"
    },
    {
      "anonymous": false,
      "inputs": [
        {
          "indexed": true,
          "internalType": "address",
          "name": "user",
          "type": "address"
        },
        {
          "indexed": false,
          "internalType": "uint256",
          "name": "amount",
          "type": "uint256"
        },
        {
          "indexed": false,
          "internalType": "bool",
          "name": "locked",
          "type": "bool"
        }
      ],
      "name": "Staked",
      "type": "event"
    },
    {
      "anonymous": false,
      "inputs": [
        {
          "indexed": true,
          "internalType": "address",
          "name": "user",
          "type": "address"
        },
        {
          "indexed": false,
          "internalType": "uint256",
          "name": "receivedAmount",
          "type": "uint256"
        },
        {
          "indexed": false,
          "internalType": "uint256",
          "name": "penaltyPaid",
          "type": "uint256"
        }
      ],
      "name": "Withdrawn",
      "type": "event"
    },
    {
      "inputs": [
        {
          "internalType": "address",
          "name": "_rewardsToken",
          "type": "address"
        }
      ],
      "name": "addReward",
      "outputs": [],
      "stateMutability": "nonpayable",
      "type": "function"
    },
    {
      "inputs": [
        {
          "internalType": "address",
          "name": "account",
          "type": "address"
        }
      ],
      "name": "claimableRewards",
      "outputs": [
        {
          "components": [
            {
              "internalType": "address",
              "name": "token",
              "type": "address"
            },
            {
              "internalType": "uint256",
              "name": "amount",
              "type": "uint256"
            }
          ],
          "internalType": "struct MultiFeeDistribution.RewardData[]",
          "name": "rewards",
          "type": "tuple[]"
        }
      ],
      "stateMutability": "view",
      "type": "function"
    },
    {
      "inputs": [
        {
          "internalType": "address",
          "name": "user",
          "type": "address"
        }
      ],
      "name": "earnedBalances",
      "outputs": [
        {
          "internalType": "uint256",
          "name": "total",
          "type": "uint256"
        },
        {
          "components": [
            {
              "internalType": "uint256",
              "name": "amount",
              "type": "uint256"
            },
            {
              "internalType": "uint256",
              "name": "unlockTime",
              "type": "uint256"
            }
          ],
          "internalType": "struct MultiFeeDistribution.LockedBalance[]",
          "name": "earningsData",
          "type": "tuple[]"
        }
      ],
      "stateMutability": "view",
      "type": "function"
    },
    {
      "inputs": [
        {
          "internalType": "bool",
          "name": "claimRewards",
          "type": "bool"
        }
      ],
      "name": "exit",
      "outputs": [],
      "stateMutability": "nonpayable",
      "type": "function"
    },
    {
      "inputs": [
        {
          "internalType": "address[]",
          "name": "_rewardTokens",
          "type": "address[]"
        }
      ],
      "name": "getReward",
      "outputs": [],
      "stateMutability": "nonpayable",
      "type": "function"
    },
    {
      "inputs": [
        {
          "internalType": "address",
          "name": "_rewardsToken",
          "type": "address"
        }
      ],
      "name": "getRewardForDuration",
      "outputs": [
        {
          "internalType": "uint256",
          "name": "",
          "type": "uint256"
        }
      ],
      "stateMutability": "view",
      "type": "function"
    },
    {
      "inputs": [],
      "name": "incentivesController",
      "outputs": [
        {
          "internalType": "contract IChefIncentivesController",
          "name": "",
          "type": "address"
        }
      ],
      "stateMutability": "view",
      "type": "function"
    },
    {
      "inputs": [
        {
          "internalType": "address",
          "name": "_rewardsToken",
          "type": "address"
        }
      ],
      "name": "lastTimeRewardApplicable",
      "outputs": [
        {
          "internalType": "uint256",
          "name": "",
          "type": "uint256"
        }
      ],
      "stateMutability": "view",
      "type": "function"
    },
    {
      "inputs": [],
      "name": "lockDuration",
      "outputs": [
        {
          "internalType": "uint256",
          "name": "",
          "type": "uint256"
        }
      ],
      "stateMutability": "view",
      "type": "function"
    },
    {
      "inputs": [
        {
          "internalType": "address",
          "name": "user",
          "type": "address"
        }
      ],
      "name": "lockedBalances",
      "outputs": [
        {
          "internalType": "uint256",
          "name": "total",
          "type": "uint256"
        },
        {
          "internalType": "uint256",
          "name": "unlockable",
          "type": "uint256"
        },
        {
          "internalType": "uint256",
          "name": "locked",
          "type": "uint256"
        },
        {
          "components": [
            {
              "internalType": "uint256",
              "name": "amount",
              "type": "uint256"
            },
            {
              "internalType": "uint256",
              "name": "unlockTime",
              "type": "uint256"
            }
          ],
          "internalType": "struct MultiFeeDistribution.LockedBalance[]",
          "name": "lockData",
          "type": "tuple[]"
        }
      ],
      "stateMutability": "view",
      "type": "function"
    },
    {
      "inputs": [],
      "name": "lockedSupply",
      "outputs": [
        {
          "internalType": "uint256",
          "name": "",
          "type": "uint256"
        }
      ],
      "stateMutability": "view",
      "type": "function"
    },
    {
      "inputs": [
        {
          "internalType": "address",
          "name": "user",
          "type": "address"
        },
        {
          "internalType": "uint256",
          "name": "amount",
          "type": "uint256"
        },
        {
          "internalType": "bool",
          "name": "withPenalty",
          "type": "bool"
        }
      ],
      "name": "mint",
      "outputs": [],
      "stateMutability": "nonpayable",
      "type": "function"
    },
    {
      "inputs": [
        {
          "internalType": "address",
          "name": "",
          "type": "address"
        }
      ],
      "name": "minters",
      "outputs": [
        {
          "internalType": "bool",
          "name": "",
          "type": "bool"
        }
      ],
      "stateMutability": "view",
      "type": "function"
    },
    {
      "inputs": [],
      "name": "mintersAreSet",
      "outputs": [
        {
          "internalType": "bool",
          "name": "",
          "type": "bool"
        }
      ],
      "stateMutability": "view",
      "type": "function"
    },
    {
      "inputs": [],
      "name": "owner",
      "outputs": [
        {
          "internalType": "address",
          "name": "",
          "type": "address"
        }
      ],
      "stateMutability": "view",
      "type": "function"
    },
    {
      "inputs": [
        {
          "internalType": "address",
          "name": "tokenAddress",
          "type": "address"
        },
        {
          "internalType": "uint256",
          "name": "tokenAmount",
          "type": "uint256"
        }
      ],
      "name": "recoverERC20",
      "outputs": [],
      "stateMutability": "nonpayable",
      "type": "function"
    },
    {
      "inputs": [],
      "name": "renounceOwnership",
      "outputs": [],
      "stateMutability": "nonpayable",
      "type": "function"
    },
    {
      "inputs": [
        {
          "internalType": "address",
          "name": "",
          "type": "address"
        }
      ],
      "name": "rewardData",
      "outputs": [
        {
          "internalType": "uint256",
          "name": "periodFinish",
          "type": "uint256"
        },
        {
          "internalType": "uint256",
          "name": "rewardRate",
          "type": "uint256"
        },
        {
          "internalType": "uint256",
          "name": "lastUpdateTime",
          "type": "uint256"
        },
        {
          "internalType": "uint256",
          "name": "rewardPerTokenStored",
          "type": "uint256"
        },
        {
          "internalType": "uint256",
          "name": "balance",
          "type": "uint256"
        }
      ],
      "stateMutability": "view",
      "type": "function"
    },
    {
      "inputs": [
        {
          "internalType": "address",
          "name": "_rewardsToken",
          "type": "address"
        }
      ],
      "name": "rewardPerToken",
      "outputs": [
        {
          "internalType": "uint256",
          "name": "",
          "type": "uint256"
        }
      ],
      "stateMutability": "view",
      "type": "function"
    },
    {
      "inputs": [
        {
          "internalType": "uint256",
          "name": "",
          "type": "uint256"
        }
      ],
      "name": "rewardTokens",
      "outputs": [
        {
          "internalType": "address",
          "name": "",
          "type": "address"
        }
      ],
      "stateMutability": "view",
      "type": "function"
    },
    {
      "inputs": [
        {
          "internalType": "address",
          "name": "",
          "type": "address"
        },
        {
          "internalType": "address",
          "name": "",
          "type": "address"
        }
      ],
      "name": "rewards",
      "outputs": [
        {
          "internalType": "uint256",
          "name": "",
          "type": "uint256"
        }
      ],
      "stateMutability": "view",
      "type": "function"
    },
    {
      "inputs": [],
      "name": "rewardsDuration",
      "outputs": [
        {
          "internalType": "uint256",
          "name": "",
          "type": "uint256"
        }
      ],
      "stateMutability": "view",
      "type": "function"
    },
    {
      "inputs": [
        {
          "internalType": "contract IChefIncentivesController",
          "name": "_controller",
          "type": "address"
        }
      ],
      "name": "setIncentivesController",
      "outputs": [],
      "stateMutability": "nonpayable",
      "type": "function"
    },
    {
      "inputs": [
        {
          "internalType": "address[]",
          "name": "_minters",
          "type": "address[]"
        }
      ],
      "name": "setMinters",
      "outputs": [],
      "stateMutability": "nonpayable",
      "type": "function"
    },
    {
      "inputs": [
        {
          "internalType": "uint256",
          "name": "amount",
          "type": "uint256"
        },
        {
          "internalType": "bool",
          "name": "lock",
          "type": "bool"
        }
      ],
      "name": "stake",
      "outputs": [],
      "stateMutability": "nonpayable",
      "type": "function"
    },
    {
      "inputs": [],
      "name": "stakingToken",
      "outputs": [
        {
          "internalType": "contract IMintableToken",
          "name": "",
          "type": "address"
        }
      ],
      "stateMutability": "view",
      "type": "function"
    },
    {
      "inputs": [
        {
          "internalType": "address",
          "name": "user",
          "type": "address"
        }
      ],
      "name": "totalBalance",
      "outputs": [
        {
          "internalType": "uint256",
          "name": "amount",
          "type": "uint256"
        }
      ],
      "stateMutability": "view",
      "type": "function"
    },
    {
      "inputs": [],
      "name": "totalSupply",
      "outputs": [
        {
          "internalType": "uint256",
          "name": "",
          "type": "uint256"
        }
      ],
      "stateMutability": "view",
      "type": "function"
    },
    {
      "inputs": [
        {
          "internalType": "address",
          "name": "newOwner",
          "type": "address"
        }
      ],
      "name": "transferOwnership",
      "outputs": [],
      "stateMutability": "nonpayable",
      "type": "function"
    },
    {
      "inputs": [
        {
          "internalType": "address",
          "name": "user",
          "type": "address"
        }
      ],
      "name": "unlockedBalance",
      "outputs": [
        {
          "internalType": "uint256",
          "name": "amount",
          "type": "uint256"
        }
      ],
      "stateMutability": "view",
      "type": "function"
    },
    {
      "inputs": [
        {
          "internalType": "address",
          "name": "",
          "type": "address"
        },
        {
          "internalType": "address",
          "name": "",
          "type": "address"
        }
      ],
      "name": "userRewardPerTokenPaid",
      "outputs": [
        {
          "internalType": "uint256",
          "name": "",
          "type": "uint256"
        }
      ],
      "stateMutability": "view",
      "type": "function"
    },
    {
      "inputs": [
        {
          "internalType": "uint256",
          "name": "amount",
          "type": "uint256"
        }
      ],
      "name": "withdraw",
      "outputs": [],
      "stateMutability": "nonpayable",
      "type": "function"
    },
    {
      "inputs": [],
      "name": "withdrawExpiredLocks",
      "outputs": [],
      "stateMutability": "nonpayable",
      "type": "function"
    },
    {
      "inputs": [
        {
          "internalType": "address",
          "name": "user",
          "type": "address"
        }
      ],
      "name": "withdrawableBalance",
      "outputs": [
        {
          "internalType": "uint256",
          "name": "amount",
          "type": "uint256"
        },
        {
          "internalType": "uint256",
          "name": "penaltyAmount",
          "type": "uint256"
        }
      ],
      "stateMutability": "view",
      "type": "function"
    }
  ],
  "bytecode": "0x60a06040523480156200001157600080fd5b50604051620031df380380620031df833981016040819052620000349162000187565b60006200004062000183565b600080546001600160a01b0319166001600160a01b0383169081178255604051929350917f8be0079c531659141344cd1fd0a4f28419497f9722a3daafe3b4186f6b6457e0908290a3506001600160601b0319606082901b16608052604051637e51dad560e11b81526001600160a01b0382169063fca3b5aa90620000ca903090600401620001d9565b602060405180830381600087803b158015620000e557600080fd5b505af1158015620000fa573d6000803e3d6000fd5b505050506040513d601f19601f82011682018060405250810190620001209190620001b7565b50600280546001810182557f405787fa12a823e0f2b7631cc41b3ba8828b3321ca811111fa75cd3aa3bb5ace0180546001600160a01b039093166001600160a01b03199093168317905560009182526003602052604090912042910155620001ed565b3390565b60006020828403121562000199578081fd5b81516001600160a01b0381168114620001b0578182fd5b9392505050565b600060208284031215620001c9578081fd5b81518015158114620001b0578182fd5b6001600160a01b0391909116815260200190565b60805160601c612f9862000247600039806109e15280610aa05280610dcd5280610e9252806111bd52806113fe528061150352806115a35280611b2c5280611beb5280611cd65280611f5c52806122da5250612f986000f3fe608060405234801561001057600080fd5b50600436106102065760003560e01c80638da5cb5b1161011a578063d1a1beb4116100ad578063e6c91a151161007c578063e6c91a1514610440578063e70b9e2714610453578063f122977714610466578063f2fde38b14610479578063f46eccc41461048c57610206565b8063d1a1beb4146103d9578063dc01f60d146103ec578063df3798761461040c578063e655dbd81461042d57610206565b8063abe50f19116100e9578063abe50f19146103a3578063af1df255146103b6578063bcd11014146103be578063ca5c7b91146103d157610206565b80638da5cb5b1461036b5780638fd9f2ca146103735780639c9b2e2114610388578063a01c77bc1461039b57610206565b80635e0fac2e1161019d578063715018a61161016c578063715018a61461031557806372f702f31461031d5780637bb7bed1146103325780637fd7d062146103455780638980f11f1461035857610206565b80635e0fac2e146102c9578063638634ee146102dc5780636eacd398146102ef5780637035ab981461030257610206565b80632e1a7d4d116101d95780632e1a7d4d14610275578063386a95251461028a57806348e5d9f814610292578063547d0096146102b657610206565b806302b629381461020b57806304554443146102355780630483a7f61461024a57806318160ddd1461026d575b600080fd5b61021e61021936600461295c565b61049f565b60405161022c929190612e28565b60405180910390f35b61023d6105cf565b60405161022c9190612df6565b61025d61025836600461295c565b6105d6565b60405161022c9493929190612e36565b61023d610764565b610288610283366004612b09565b61076a565b005b61023d610b0e565b6102a56102a036600461295c565b610b15565b60405161022c959493929190612e65565b6102886102c4366004612a1c565b610b45565b61023d6102d736600461295c565b610c20565b61023d6102ea36600461295c565b610cb8565b61023d6102fd36600461295c565b610ce7565b61023d610310366004612978565b610d02565b610288610d1f565b610325610dcb565b60405161022c9190612ba2565b610325610340366004612b09565b610def565b610288610353366004612a1c565b610e19565b6102886103663660046129b0565b610e2e565b610325610f74565b61037b610f83565b60405161022c9190612c83565b61028861039636600461295c565b610f8c565b610288611076565b6102886103b1366004612b39565b611222565b61032561146e565b61023d6103cc36600461295c565b61147d565b61023d6114b7565b6102886103e73660046129db565b6114bd565b6103ff6103fa36600461295c565b611755565b60405161022c9190612c2b565b61041f61041a36600461295c565b6118f0565b60405161022c929190612dff565b61028861043b36600461295c565b611a14565b61028861044e366004612ad1565b611a98565b61023d610461366004612978565b611cb4565b61023d61047436600461295c565b611cd1565b61028861048736600461295c565b611d25565b61037b61049a36600461295c565b611e27565b6001600160a01b0381166000908152600a60205260408120600381015482919080156105a5576001600160a01b0385166000908152600c6020526040812054815b8181101561058a576001600160a01b0388166000908152600c6020526040812080548390811061050c57fe5b9060005260206000209060020201600001549050806000141561052f5750610582565b6001600160a01b0389166000908152600c6020526040902080544291908490811061055657fe5b9060005260206000209060020201600101541115610574575061058a565b61057e8482611e3c565b9350505b6001016104e0565b506105a0600261059a8585611e96565b90611ef3565b945050505b6105c6836105c0838560010154611e3c90919063ffffffff16565b90611e96565b93505050915091565b6277f88081565b6001600160a01b0381166000908152600b602052604081208190819060609082805b825481101561073c574283828154811061060e57fe5b906000526020600020906002020160010154111561070a578161068457825481900367ffffffffffffffff8111801561064657600080fd5b5060405190808252806020026020018201604052801561068057816020015b61066d6128e0565b8152602001906001900390816106655790505b5093505b82818154811061069057fe5b9060005260206000209060020201604051806040016040529081600082015481526020016001820154815250508483815181106106c957fe5b602002602001018190525081806001019250506107038382815481106106eb57fe5b60009182526020909120600290910201548690611e3c565b9450610734565b61073183828154811061071957fe5b60009182526020909120600290910201548790611e3c565b95505b6001016105f8565b5050506001600160a01b0385166000908152600a602052604090206002015493509193509193565b60085481565b600081116107935760405162461bcd60e51b815260040161078a90612cf8565b60405180910390fd5b61079c33611f5a565b336000908152600a60205260408120600181015490919083116107d25760018201546107c89084611e96565b60018301556109a7565b60006107eb836001015485611e9690919063ffffffff16565b905080836003015410156108115760405162461bcd60e51b815260040161078a90612d5a565b6000600184015560038301546108279082611e96565b600384015560005b336000908152600c6020526040812080548390811061084a57fe5b9060005260206000209060020201600001549050806000141561086d575061099c565b831580156108a85750336000908152600c6020526040902080544291908490811061089457fe5b906000526020600020906002020160010154115b1561091a5782935082856003015410156108d45760405162461bcd60e51b815260040161078a90612cb6565b60038501546108e39084611e96565b6003860181905561090c57336000908152600c60205260408120610906916128fa565b506109a4565b61091783600261211a565b92505b80831161095d5761092b8184611e96565b336000908152600c6020526040902080548490811061094657fe5b6000918252602090912060029091020155506109a4565b336000908152600c6020526040902080548390811061097857fe5b600091825260208220600290910201818155600101556109988382611e96565b9250505b60010161082f565b50505b60006109b38483611e3c565b83549091506109c29082611e96565b83556008546109d19082611e96565b600855610a086001600160a01b037f0000000000000000000000000000000000000000000000000000000000000000163386612173565b8115610ac5576001546001600160a01b0316638e2eba09306000604051908082528060200260200182016040528015610a4b578160200160208202803683370190505b506040518363ffffffff1660e01b8152600401610a69929190612bb6565b600060405180830381600087803b158015610a8357600080fd5b505af1158015610a97573d6000803e3d6000fd5b50505050610ac57f0000000000000000000000000000000000000000000000000000000000000000836121c5565b336001600160a01b03167f92ccf450a286a957af52509bc1c9939d1a6a481783e142e41e2499f0bb66ebc68584604051610b00929190612e28565b60405180910390a250505050565b62093a8081565b60036020819052600091825260409091208054600182015460028301549383015460049093015491939092909185565b610b4d612277565b6001600160a01b0316610b5e610f74565b6001600160a01b031614610ba7576040805162461bcd60e51b81526020600482018190526024820152600080516020612f19833981519152604482015290519081900360640190fd5b60055460ff1615610bb757600080fd5b60005b8151811015610c0f57600160046000848481518110610bd557fe5b6020908102919091018101516001600160a01b03168252810191909152604001600020805460ff1916911515919091179055600101610bba565b50506005805460ff19166001179055565b6001600160a01b0381166000908152600a6020908152604080832060010154338452600c909252822090915b8154811015610cb05742828281548110610c6257fe5b9060005260206000209060020201600101541115610c7f57610cb0565b610ca6828281548110610c8e57fe5b60009182526020909120600290910201548490611e3c565b9250600101610c4c565b50505b919050565b6001600160a01b038116600090815260036020526040812054428111610cde5780610ce0565b425b9392505050565b6001600160a01b03166000908152600a602052604090205490565b600660209081526000928352604080842090915290825290205481565b610d27612277565b6001600160a01b0316610d38610f74565b6001600160a01b031614610d81576040805162461bcd60e51b81526020600482018190526024820152600080516020612f19833981519152604482015290519081900360640190fd5b600080546040516001600160a01b03909116907f8be0079c531659141344cd1fd0a4f28419497f9722a3daafe3b4186f6b6457e0908390a3600080546001600160a01b0319169055565b7f000000000000000000000000000000000000000000000000000000000000000081565b60028181548110610dff57600080fd5b6000918252602090912001546001600160a01b0316905081565b610e2233611f5a565b610e2b8161227b565b50565b610e36612277565b6001600160a01b0316610e47610f74565b6001600160a01b031614610e90576040805162461bcd60e51b81526020600482018190526024820152600080516020612f19833981519152604482015290519081900360640190fd5b7f00000000000000000000000000000000000000000000000000000000000000006001600160a01b0316826001600160a01b03161415610ee25760405162461bcd60e51b815260040161078a90612d23565b6001600160a01b03821660009081526003602052604090206002015415610f1b5760405162461bcd60e51b815260040161078a90612d91565b610f37610f26610f74565b6001600160a01b0384169083612173565b7f8c1256b8896378cd5044f80c202f9772b9d77dc85c8a6eb51967210b09bfaa288282604051610f68929190612c12565b60405180910390a15050565b6000546001600160a01b031690565b60055460ff1681565b610f94612277565b6001600160a01b0316610fa5610f74565b6001600160a01b031614610fee576040805162461bcd60e51b81526020600482018190526024820152600080516020612f19833981519152604482015290519081900360640190fd5b6001600160a01b0381166000908152600360205260409020600201541561101457600080fd5b600280546001810182557f405787fa12a823e0f2b7631cc41b3ba8828b3321ca811111fa75cd3aa3bb5ace0180546001600160a01b039093166001600160a01b0319909316831790556000918252600360205260409091204291810182905555565b61107f33611f5a565b336000908152600b60209081526040808320600a9092528220815491929091806110ac5750505050611220565b428460018303815481106110bc57fe5b906000526020600020906002020160010154116110f9576002830154336000908152600b602052604081209193506110f491906128fa565b61116e565b60005b8181101561116c574285828154811061111157fe5b906000526020600020906002020160010154111561112e5761116c565b61113d858281548110610c8e57fe5b925084818154811061114b57fe5b600091825260208220600290910201818155600190810191909155016110fc565b505b600283015461117d9083611e96565b6002840155825461118e9083611e96565b835560085461119d9083611e96565b6008556009546111ad9083611e96565b6009556111e46001600160a01b037f0000000000000000000000000000000000000000000000000000000000000000163384612173565b336001600160a01b03167f92ccf450a286a957af52509bc1c9939d1a6a481783e142e41e2499f0bb66ebc6836000604051610b00929190612e28565b565b600082116112425760405162461bcd60e51b815260040161078a90612c8e565b61124b33611f5a565b6008546112589083611e3c565b600855336000908152600a6020526040902080546112769084611e3c565b815581156113dc5760095461128b9084611e3c565b600955600281015461129d9084611e3c565b600282015560006112c86277f8806112c262093a806112bc4282611ef3565b9061211a565b90611e3c565b336000908152600b60205260409020549091508015806113195750336000908152600b602052604090208054839190600019840190811061130557fe5b906000526020600020906002020160010154105b1561136857336000908152600b602090815260408083208151808301909252888252818301868152815460018181018455928652939094209151600290930290910191825591519101556113d5565b336000908152600b6020526040902080546113a4918791600019850190811061138d57fe5b600091825260209091206002909102015490611e3c565b336000908152600b60205260409020805460001984019081106113c357fe5b60009182526020909120600290910201555b50506113f1565b60018101546113eb9084611e3c565b60018201555b6114266001600160a01b037f0000000000000000000000000000000000000000000000000000000000000000163330866124ad565b336001600160a01b03167f37d4053e34fde482e96f6bcd424dfa31342cbd5fe184d497fb3c8bb4b4b975808484604051611461929190612e18565b60405180910390a2505050565b6001546001600160a01b031681565b6001600160a01b0381166000908152600360205260408120600101546114b19064e8d4a510009061059a9062093a8061211a565b92915050565b60095481565b3360009081526004602052604090205460ff166114d957600080fd5b816114e357611750565b6114ec83611f5a565b6040516340c10f1960e01b81526001600160a01b037f000000000000000000000000000000000000000000000000000000000000000016906340c10f199061153a9030908690600401612c12565b602060405180830381600087803b15801561155457600080fd5b505af1158015611568573d6000803e3d6000fd5b505050506040513d601f19601f8201168201806040525081019061158c9190612aed565b506001600160a01b0383163014156115cd576115c87f0000000000000000000000000000000000000000000000000000000000000000836121c5565b611750565b6008546115da9083611e3c565b6008556001600160a01b0383166000908152600a6020526040902080546116019084611e3c565b815581156116ff5760038101546116189084611e3c565b600382015560006116376277f8806112c262093a806112bc4282611ef3565b6001600160a01b0386166000908152600c6020526040902080549192509080158061168157508282600183038154811061166d57fe5b906000526020600020906002020160010154105b156116c35760408051808201909152868152602080820185815284546001818101875560008781529390932093516002909102909301928355519101556116f7565b6116d68683600184038154811061138d57fe5b8260018303815481106116e557fe5b60009182526020909120600290910201555b505050611714565b600181015461170e9084611e3c565b60018201555b836001600160a01b03167f37d4053e34fde482e96f6bcd424dfa31342cbd5fe184d497fb3c8bb4b4b97580846000604051610b00929190612e18565b505050565b60025460609067ffffffffffffffff8111801561177157600080fd5b506040519080825280602002602001820160405280156117ab57816020015b61179861291b565b8152602001906001900390816117905790505b50905060005b81518110156118ea57600081156117e0576001600160a01b0384166000908152600a60205260409020546117fd565b6001600160a01b0384166000908152600a60205260409020600201545b90506000821561180f57600854611813565b6009545b90506002838154811061182257fe5b9060005260206000200160009054906101000a90046001600160a01b031684848151811061184c57fe5b6020026020010151600001906001600160a01b031690816001600160a01b0316815250506118c664e8d4a5100061059a8787878151811061188957fe5b602002602001015160000151866118c160028a815481106118a657fe5b6000918252602090912001546001600160a01b03168861250d565b6125a4565b8484815181106118d257fe5b602090810291909101810151015250506001016117b1565b50919050565b6001600160a01b0381166000908152600c6020526040812060609082805b8254811015611a0c574283828154811061192457fe5b9060005260206000209060020201600101541115611a04578161199a57825481900367ffffffffffffffff8111801561195c57600080fd5b5060405190808252806020026020018201604052801561199657816020015b6119836128e0565b81526020019060019003908161197b5790505b5093505b8281815481106119a657fe5b9060005260206000209060020201604051806040016040529081600082015481526020016001820154815250508483815181106119df57fe5b60200260200101819052508180600101925050611a018382815481106106eb57fe5b94505b60010161190e565b505050915091565b611a1c612277565b6001600160a01b0316611a2d610f74565b6001600160a01b031614611a76576040805162461bcd60e51b81526020600482018190526024820152600080516020612f19833981519152604482015290519081900360640190fd5b600180546001600160a01b0319166001600160a01b0392909216919091179055565b611aa133611f5a565b600080611aad3361049f565b336000908152600c60205260408120929450909250611acc91906128fa565b336000908152600a60205260409020600381015460018201548254611af692916105c09190611e96565b81556000600182018190556003820155611b1c611b138484611e3c565b60085490611e96565b600855611b536001600160a01b037f0000000000000000000000000000000000000000000000000000000000000000163385612173565b8115611c10576001546001600160a01b0316638e2eba09306000604051908082528060200260200182016040528015611b96578160200160208202803683370190505b506040518363ffffffff1660e01b8152600401611bb4929190612bb6565b600060405180830381600087803b158015611bce57600080fd5b505af1158015611be2573d6000803e3d6000fd5b50505050611c107f0000000000000000000000000000000000000000000000000000000000000000836121c5565b8315611c7957611c796002805480602002602001604051908101604052809291908181526020018280548015611c6f57602002820191906000526020600020905b81546001600160a01b03168152600190910190602001808311611c51575b505050505061227b565b336001600160a01b03167f92ccf450a286a957af52509bc1c9939d1a6a481783e142e41e2499f0bb66ebc68484604051610b00929190612e28565b600760209081526000928352604080842090915290825290205481565b6000807f00000000000000000000000000000000000000000000000000000000000000006001600160a01b0316836001600160a01b031614611d1557600854611d19565b6009545b9050610ce0838261250d565b611d2d612277565b6001600160a01b0316611d3e610f74565b6001600160a01b031614611d87576040805162461bcd60e51b81526020600482018190526024820152600080516020612f19833981519152604482015290519081900360640190fd5b6001600160a01b038116611dcc5760405162461bcd60e51b8152600401808060200182810382526026815260200180612eac6026913960400191505060405180910390fd5b600080546040516001600160a01b03808516939216917f8be0079c531659141344cd1fd0a4f28419497f9722a3daafe3b4186f6b6457e091a3600080546001600160a01b0319166001600160a01b0392909216919091179055565b60046020526000908152604090205460ff1681565b600082820183811015610ce0576040805162461bcd60e51b815260206004820152601b60248201527f536166654d6174683a206164646974696f6e206f766572666c6f770000000000604482015290519081900360640190fd5b600082821115611eed576040805162461bcd60e51b815260206004820152601e60248201527f536166654d6174683a207375627472616374696f6e206f766572666c6f770000604482015290519081900360640190fd5b50900390565b6000808211611f49576040805162461bcd60e51b815260206004820152601a60248201527f536166654d6174683a206469766973696f6e206279207a65726f000000000000604482015290519081900360640190fd5b818381611f5257fe5b049392505050565b7f00000000000000000000000000000000000000000000000000000000000000006001600160a01b03811660009081526003602052604081206009548290611fa390859061250d565b600383018190559050611fb584610cb8565b60028301556001600160a01b0385163014612043576001600160a01b0385166000908152600a6020526040902060020154611ff49086908690846125a4565b6001600160a01b038087166000818152600760209081526040808320948a168084529482528083209590955582825260068152848220938252928352838120859055908152600a909152205492505b60085460025460015b81811015612110576002818154811061206157fe5b60009182526020808320909101546001600160a01b0316808352600390915260409091209097509450612094878461250d565b6003860181905593506120a687610cb8565b60028601556001600160a01b0388163014612108576120c7888888876125a4565b6001600160a01b03808a166000818152600760209081526040808320948d168084529482528083209590955591815260068252838120928152919052208490555b60010161204c565b5050505050505050565b600082612129575060006114b1565b8282028284828161213657fe5b0414610ce05760405162461bcd60e51b8152600401808060200182810382526021815260200180612ef86021913960400191505060405180910390fd5b604080516001600160a01b038416602482015260448082018490528251808303909101815260649091019091526020810180516001600160e01b031663a9059cbb60e01b179052611750908490612613565b6001600160a01b038216600090815260036020526040902080544210612205576121fb62093a8061059a8464e8d4a5100061211a565b600182015561225c565b80546000906122149042611e96565b9050600061223864e8d4a5100061059a85600101548561211a90919063ffffffff16565b905061225462093a8061059a64e8d4a510006112bc8886611e3c565b600184015550505b42600282018190556122719062093a80611e3c565b90555050565b3390565b805160005b8181101561175057600083828151811061229657fe5b6020908102919091018101513360009081526007835260408082206001600160a01b0384168352909352918220549092506122d69064e8d4a51000611ef3565b90507f00000000000000000000000000000000000000000000000000000000000000006001600160a01b0316826001600160a01b03161461241a576001600160a01b03821660009081526003602052604090208054806123485760405162461bcd60e51b815260040161078a90612dc8565b600482015461235a426207e900611e3c565b8210156124045760006123e382876001600160a01b03166370a08231306040518263ffffffff1660e01b81526004016123939190612ba2565b60206040518083038186803b1580156123ab57600080fd5b505afa1580156123bf573d6000803e3d6000fd5b505050506040513d601f19601f820116820180604052508101906105c09190612b21565b90508015612402576123f586826121c5565b6123ff8282611e3c565b91505b505b61240e8185611e96565b83600401819055505050505b806124265750506124a5565b3360008181526007602090815260408083206001600160a01b03871680855292528220919091556124579183612173565b816001600160a01b0316336001600160a01b03167f540798df468d7b23d11f156fdb954cb19ad414d150722a7b6d55ba369dea792e8360405161249a9190612df6565b60405180910390a350505b600101612280565b604080516001600160a01b0380861660248301528416604482015260648082018490528251808303909101815260849091019091526020810180516001600160e01b03166323b872dd60e01b179052612507908590612613565b50505050565b60008161253757506001600160a01b038216600090815260036020819052604090912001546114b1565b6001600160a01b03831660009081526003602052604090206001810154600290910154610ce09161258191859161059a91670de0b6b3a7640000916112bc9182906105c08c610cb8565b6001600160a01b0385166000908152600360208190526040909120015490611e3c565b6001600160a01b03808516600081815260076020908152604080832094881680845294825280832054938352600682528083209483529390529182205461260a91906112c290670de0b6b3a76400009061059a90612603908890611e96565b889061211a565b95945050505050565b6000612668826040518060400160405280602081526020017f5361666545524332303a206c6f772d6c6576656c2063616c6c206661696c6564815250856001600160a01b03166126c49092919063ffffffff16565b8051909150156117505780806020019051602081101561268757600080fd5b50516117505760405162461bcd60e51b815260040180806020018281038252602a815260200180612f39602a913960400191505060405180910390fd5b60606126d384846000856126db565b949350505050565b60608247101561271c5760405162461bcd60e51b8152600401808060200182810382526026815260200180612ed26026913960400191505060405180910390fd5b61272585612836565b612776576040805162461bcd60e51b815260206004820152601d60248201527f416464726573733a2063616c6c20746f206e6f6e2d636f6e7472616374000000604482015290519081900360640190fd5b600080866001600160a01b031685876040518082805190602001908083835b602083106127b45780518252601f199092019160209182019101612795565b6001836020036101000a03801982511681845116808217855250505050505090500191505060006040518083038185875af1925050503d8060008114612816576040519150601f19603f3d011682016040523d82523d6000602084013e61281b565b606091505b509150915061282b82828661283c565b979650505050505050565b3b151590565b6060831561284b575081610ce0565b82511561285b5782518084602001fd5b8160405162461bcd60e51b81526004018080602001828103825283818151815260200191508051906020019080838360005b838110156128a557818101518382015260200161288d565b50505050905090810190601f1680156128d25780820380516001836020036101000a031916815260200191505b509250505060405180910390fd5b604051806040016040528060008152602001600081525090565b5080546000825560020290600052602060002090810190610e2b9190612932565b604080518082019091526000808252602082015290565b5b8082111561294d5760008082556001820155600201612933565b5090565b8035610cb381612e88565b60006020828403121561296d578081fd5b8135610ce081612e88565b6000806040838503121561298a578081fd5b823561299581612e88565b915060208301356129a581612e88565b809150509250929050565b600080604083850312156129c2578182fd5b82356129cd81612e88565b946020939093013593505050565b6000806000606084860312156129ef578081fd5b83356129fa81612e88565b9250602084013591506040840135612a1181612e9d565b809150509250925092565b60006020808385031215612a2e578182fd5b823567ffffffffffffffff80821115612a45578384fd5b818501915085601f830112612a58578384fd5b813581811115612a6457fe5b83810260405185828201018181108582111715612a7d57fe5b604052828152858101935084860182860187018a1015612a9b578788fd5b8795505b83861015612ac457612ab081612951565b855260019590950194938601938601612a9f565b5098975050505050505050565b600060208284031215612ae2578081fd5b8135610ce081612e9d565b600060208284031215612afe578081fd5b8151610ce081612e9d565b600060208284031215612b1a578081fd5b5035919050565b600060208284031215612b32578081fd5b5051919050565b60008060408385031215612b4b578182fd5b8235915060208301356129a581612e9d565b6000815180845260208085019450808401835b83811015612b97578151805188528301518388015260409096019590820190600101612b70565b509495945050505050565b6001600160a01b0391909116815260200190565b6001600160a01b038381168252604060208084018290528451918401829052600092858201929091906060860190855b81811015612c04578551851683529483019491830191600101612be6565b509098975050505050505050565b6001600160a01b03929092168252602082015260400190565b602080825282518282018190526000919060409081850190868401855b82811015612c7657815180516001600160a01b03168552860151868501529284019290850190600101612c48565b5091979650505050505050565b901515815260200190565b6020808252600e908201526d043616e6e6f74207374616b6520360941b604082015260600190565b60208082526022908201527f496e73756666696369656e742062616c616e63652061667465722070656e616c604082015261747960f01b606082015260800190565b602080825260119082015270043616e6e6f74207769746864726177203607c1b604082015260600190565b6020808252601d908201527f43616e6e6f74207769746864726177207374616b696e6720746f6b656e000000604082015260600190565b6020808252601d908201527f496e73756666696369656e7420756e6c6f636b65642062616c616e6365000000604082015260600190565b6020808252601c908201527f43616e6e6f742077697468647261772072657761726420746f6b656e00000000604082015260600190565b6020808252601490820152732ab735b737bbb7103932bbb0b932103a37b5b2b760611b604082015260600190565b90815260200190565b6000838252604060208301526126d36040830184612b5d565b9182521515602082015260400190565b918252602082015260400190565b600085825284602083015283604083015260806060830152612e5b6080830184612b5d565b9695505050505050565b948552602085019390935260408401919091526060830152608082015260a00190565b6001600160a01b0381168114610e2b57600080fd5b8015158114610e2b57600080fdfe4f776e61626c653a206e6577206f776e657220697320746865207a65726f2061646472657373416464726573733a20696e73756666696369656e742062616c616e636520666f722063616c6c536166654d6174683a206d756c7469706c69636174696f6e206f766572666c6f774f776e61626c653a2063616c6c6572206973206e6f7420746865206f776e65725361666545524332303a204552433230206f7065726174696f6e20646964206e6f742073756363656564a26469706673582212203b4c1934ea34d51a751a828c0a5d80f8bc65699f990c94766e2f965e6ab3b2c564736f6c63430007060033",
  "linkReferences": {},
  "deployedLinkReferences": {}
}