{
  "_format": "hh-sol-artifact-1",
  "contractName": "TokenVesting",
  "sourceName": "contracts/staking/TokenVesting.sol",
  "abi": [
    {
      "inputs": [
        {
          "internalType": "contract IMultiFeeDistribution",
          "name": "_minter",
          "type": "address"
        },
        {
          "internalType": "uint256",
          "name": "_maxMintable",
          "type": "uint256"
        },
        {
          "internalType": "address[]",
          "name": "_receivers",
          "type": "address[]"
        },
        {
          "internalType": "uint256[]",
          "name": "_amounts",
          "type": "uint256[]"
        }
      ],
      "stateMutability": "nonpayable",
      "type": "constructor"
    },
    {
      "inputs": [
        {
          "internalType": "address",
          "name": "_receiver",
          "type": "address"
        }
      ],
      "name": "claim",
      "outputs": [],
      "stateMutability": "nonpayable",
      "type": "function"
    },
    {
      "inputs": [
        {
          "internalType": "address",
          "name": "_claimer",
          "type": "address"
        }
      ],
      "name": "claimable",
      "outputs": [
        {
          "internalType": "uint256",
          "name": "",
          "type": "uint256"
        }
      ],
      "stateMutability": "view",
      "type": "function"
    },
    {
      "inputs": [],
      "name": "duration",
      "outputs": [
        {
          "internalType": "uint256",
          "name": "",
          "type": "uint256"
        }
      ],
      "stateMutability": "view",
      "type": "function"
    },
    {
      "inputs": [],
      "name": "maxMintableTokens",
      "outputs": [
        {
          "internalType": "uint256",
          "name": "",
          "type": "uint256"
        }
      ],
      "stateMutability": "view",
      "type": "function"
    },
    {
      "inputs": [],
      "name": "mintedTokens",
      "outputs": [
        {
          "internalType": "uint256",
          "name": "",
          "type": "uint256"
        }
      ],
      "stateMutability": "view",
      "type": "function"
    },
    {
      "inputs": [],
      "name": "minter",
      "outputs": [
        {
          "internalType": "contract IMultiFeeDistribution",
          "name": "",
          "type": "address"
        }
      ],
      "stateMutability": "view",
      "type": "function"
    },
    {
      "inputs": [],
      "name": "owner",
      "outputs": [
        {
          "internalType": "address",
          "name": "",
          "type": "address"
        }
      ],
      "stateMutability": "view",
      "type": "function"
    },
    {
      "inputs": [],
      "name": "start",
      "outputs": [],
      "stateMutability": "nonpayable",
      "type": "function"
    },
    {
      "inputs": [],
      "name": "startTime",
      "outputs": [
        {
          "internalType": "uint256",
          "name": "",
          "type": "uint256"
        }
      ],
      "stateMutability": "view",
      "type": "function"
    },
    {
      "inputs": [
        {
          "internalType": "address",
          "name": "",
          "type": "address"
        }
      ],
      "name": "vests",
      "outputs": [
        {
          "internalType": "uint256",
          "name": "total",
          "type": "uint256"
        },
        {
          "internalType": "uint256",
          "name": "claimed",
          "type": "uint256"
        }
      ],
      "stateMutability": "view",
      "type": "function"
    }
  ],
  "bytecode": "0x60a060405234801561001057600080fd5b506040516108d03803806108d08339818101604052608081101561003357600080fd5b8151602083015160408085018051915193959294830192918464010000000082111561005e57600080fd5b90830190602082018581111561007357600080fd5b825186602082028301116401000000008211171561009057600080fd5b82525081516020918201928201910280838360005b838110156100bd5781810151838201526020016100a5565b50505050905001604052602001805160405193929190846401000000008211156100e657600080fd5b9083019060208201858111156100fb57600080fd5b825186602082028301116401000000008211171561011857600080fd5b82525081516020918201928201910280838360005b8381101561014557818101518382015260200161012d565b50505050905001604052505050805182511461016057600080fd5b600280546001600160a01b0319166001600160a01b0386161790556000805b835181101561024c576004600085838151811061019857fe5b60200260200101516001600160a01b03166001600160a01b03168152602001908152602001600020600001546000146101d057600080fd5b6101fa8382815181106101df57fe5b60200260200101518361027860201b6104011790919060201c565b915082818151811061020857fe5b60200260200101516004600086848151811061022057fe5b6020908102919091018101516001600160a01b031682528101919091526040016000205560010161017f565b5083811461025957600080fd5b6080525050600380546001600160a01b03191633179055506102d99050565b6000828201838110156102d2576040805162461bcd60e51b815260206004820152601b60248201527f536166654d6174683a206164646974696f6e206f766572666c6f770000000000604482015290519081900360640190fd5b9392505050565b6080516105d86102f8600039806101af528061026e52506105d86000f3fe608060405234801561001057600080fd5b506004361061009e5760003560e01c80635c712bc0116100665780635c712bc01461013757806378e97925146101765780638d75fe051461017e5780638da5cb5b14610186578063be9a65551461018e5761009e565b806307546172146100a35780630fb5a6b4146100c75780631a848e01146100e15780631e83409a146100e9578063402914f514610111575b600080fd5b6100ab610196565b604080516001600160a01b039092168252519081900360200190f35b6100cf6101a5565b60408051918252519081900360200190f35b6100cf6101ad565b61010f600480360360208110156100ff57600080fd5b50356001600160a01b03166101d1565b005b6100cf6004803603602081101561012757600080fd5b50356001600160a01b0316610319565b61015d6004803603602081101561014d57600080fd5b50356001600160a01b03166103a3565b6040805192835260208301919091528051918290030190f35b6100cf6103bc565b6100cf6103c2565b6100ab6103c8565b61010f6103d7565b6002546001600160a01b031681565b6301e1338081565b7f000000000000000000000000000000000000000000000000000000000000000081565b6000546101dd57600080fd5b33600090815260046020526040812081549091906101fc904290610464565b90506301e1338081111561021157506301e133805b8154600090610230906301e133809061022a90856104c1565b9061051a565b9050826001015481111561031357600061025784600101548361046490919063ffffffff16565b6001549091506102679082610401565b60018190557f0000000000000000000000000000000000000000000000000000000000000000101561029857600080fd5b600254604080516334686fad60e21b81526001600160a01b03888116600483015260248201859052600060448301819052925193169263d1a1beb49260648084019391929182900301818387803b1580156102f257600080fd5b505af1158015610306573d6000803e3d6000fd5b5050505060018401829055505b50505050565b600080546103295750600061039e565b6001600160a01b03821660009081526004602052604081208154909190610351904290610464565b90506301e1338081111561036657506301e133805b815460009061037f906301e133809061022a90856104c1565b905061039883600101548261046490919063ffffffff16565b93505050505b919050565b6004602052600090815260409020805460019091015482565b60005481565b60015481565b6003546001600160a01b031681565b6003546001600160a01b031633146103ee57600080fd5b600054156103fb57600080fd5b42600055565b60008282018381101561045b576040805162461bcd60e51b815260206004820152601b60248201527f536166654d6174683a206164646974696f6e206f766572666c6f770000000000604482015290519081900360640190fd5b90505b92915050565b6000828211156104bb576040805162461bcd60e51b815260206004820152601e60248201527f536166654d6174683a207375627472616374696f6e206f766572666c6f770000604482015290519081900360640190fd5b50900390565b6000826104d05750600061045e565b828202828482816104dd57fe5b041461045b5760405162461bcd60e51b81526004018080602001828103825260218152602001806105826021913960400191505060405180910390fd5b6000808211610570576040805162461bcd60e51b815260206004820152601a60248201527f536166654d6174683a206469766973696f6e206279207a65726f000000000000604482015290519081900360640190fd5b81838161057957fe5b04939250505056fe536166654d6174683a206d756c7469706c69636174696f6e206f766572666c6f77a2646970667358221220a6ccd633aecd37495389412f2d8a20d085b891d88a126f9bbc9c1943dfcf23b864736f6c63430007060033",
  "linkReferences": {},
  "deployedLinkReferences": {}
}